:020000040000FA
:100000000000000082EF12F0086A800E3B6E00D004
:10001000196A1A6A1B6A1C6A0A9ADAD9D8A01200ED
:10002000D30FD8B40A8A2D0FC60FF7E20A0FF5E3F3
:10003000156E146A136A126A0A0E116E9EEC03F0B2
:1000400015501124196E12501A6E000ED8B0010E00
:100050001A2613501B6E000ED8B0010E1B2614502A
:100060001C6E000ED8B0010E1C26080607E0B0D9A1
:10007000D8A01200C60F02E20A0FDAE20AAA0BD0D9
:10008000191E1A1E1B1E1C1E192AD8B41A2AD8B4EF
:100090001B2AD8B41C2A1950D8801200086A196E7D
:1000A0001A6A00960850D8B40086040E076E1A38F3
:1000B00005D81A5003D8193801D819500F0BF60F6C
:1000C000D8B0070F0A0F23D031D803D0086A196EB1
:1000D0001A6A00960850D8B40086050E076E270EDF
:1000E000166E100E0CD8030E166EE80E08D8166A9F
:1000F000640E05D8166A0A0E02D8195008D0156E7B
:100100001A50126E1950116E4CEC03F01150116E12
:10011000074E0096085002E0075C07E21150D8A491
:10012000009600B602D0300F45D112001AAE120070
:1001300019501A10D8B41200191E1A1E194A1A2A78
:100140002D0E38D13D6E26AE02D02D0E33D9283E6D
:1001500004D0273E02D0264A262A336A346A356AFA
:10016000366A268E6A0E2526D89026322732283205
:100170003632353234323332253EF6D72850255CBC
:100180002826255E2750265C2726265E086A38D852
:100190002E0E10D93E6AD8903334286E3434276E30
:1001A0003534266E3634256E3E36D89028362736BE
:1001B000263625363E36335028263450D8B0343CC7
:1001C00027263550D8B0353C26263650D8B0363C98
:1001D0002526D8B03E3ED8902836273626362536F6
:1001E0003E363E50300FE6D828C033F027C034F0FA
:1001F00026C035F025C036F03D2ECCD7D890120061
:100200000096085003E100860A0E086E28C014F01C
:1002100027C013F026C012F025C011F0076A1C6A2F
:100220001B6A1A6A0A0E196E1EEC03F0072A0750A1
:10023000085CF5E11950D8A4009600A602D0082C5D
:1002400003D01950300FB6D8082EE0D7120005C0E1
:1002500011F006C012F0010E156E166AEA6802C0AF
:10026000E9FF000028D814E3152EFBD7FF0E162651
:10027000F8E21126D8A01226D8A01200200E156E82
:10028000030E166EEED7EA6802C0E9FF14D8FEE24C
:1002900054D81F6A080E166E51D80DD8D8B01F3E1C
:1002A0001532162EF9D722AA1F6A22BA159E46D8F1
:1002B000D88015501200120EE9260950EF1202C024
:1002C000E9FFEF1422BC0918FF0F12001D6EEA6847
:1002D000E2680250E96E120FE16E800E0A16080EF7
:1002E0001E6ED890D8B00A3E11D81D321E2EFAD7F5
:1002F000000022BA0A300AD800D000D000D0D8803E
:1003000005D80650166E055053D9120022AE0BD0F8
:10031000EF50091022AC0918EF6EE7500910D8A071
:100320000918E76E0BD0EF500910D8A0091822BCAD
:100330000918EF6E091CE71601D00A8C22501F0B1A
:10034000000F126E2150110FD8B0122A0AAC3DD105
:100350000A9C116E020E0AEC04F037D171B271984A
:10036000718802C011F009C012F0156A166A000007
:1003700000D00000A4BA0FD0E8681526162211227A
:100380001222D8A012001548163CF1D7D00E156ED7
:10039000030E166EEED77450D8801200A66AA68E91
:1003A0000900F55002E002D8FBD71200A4A8FED73E
:1003B000736E120001BA8AD701A202D001B036D002
:1003C00001A205D001B003D001B2EE6E1200EED74B
:1003D0003BAE03D0EE50D88012003B50080ABEE07E
:1003E0003B50030AD8B433D73B50050AD8B44BD797
:1003F000008800A8009800BA03D0008A35D829E206
:100400000094080E166E40D81536162EFCD700B490
:1004100007D000B801D04AD845D841D800B819D87B
:1004200043D8D89015501CD0008800A8009800BC74
:1004300005D0FE0B0A6E008CD89012D000BE05D0FD
:100440001D6E008E11D805E21D5012D802E200A8E0
:1004500007D02CD827D8009C009E009A009424D85E
:100460001F80D8A01F90120017D80A5000BA0109A7
:10047000156E080E166E153617D801E217D812D869
:100480000ED8162EF8D710D80DD800D00000D8906E
:1004900081BCD88004D8120007D804D807D8819E20
:1004A000939E06D0938E04D0938C02D08A9C939C0A
:1004B0001200A86EA66AA684550EA76EAA0EA76E95
:1004C000A682A6B2FED7A694A94AAA2AA68E120090
:1004D000A96EA66AA680A850A94AAA2AA68E1200CA
:1004E000E836E836FC0B0109C2128009C216C0507A
:1004F000F80B0309C06E640E67D8C282C2B2FED781
:10050000C4CF26F0C350256E1200080E1D6E1E6E5D
:10051000EA6803C0E9FF04500AB480D90AA480D96C
:10052000E26803C0E1FF0250120FE96E0950EF12BA
:1005300002C0E9FF116A126A1D500FE00AB231D8F9
:10054000EF500914FF0F113612360AA22AD81D2EB9
:10055000F5D71E500AB043D111501200080E1D6E7F
:10056000EA6803C0E9FF04500AB458D90AA458D96C
:10057000E26803C0E1FF0250120FE96E091CEF169A
:100580001D500EE00AB02BD902C0E9FF1232113221
:10059000EF500910D8A00918EF6E03D81D2EF6D71A
:1005A00012000450E71A000000D0E71A1200166A81
:1005B000156EFF0E1526162200D0D8A01200030ECD
:1005C000126EE60E02D8F5D7126AFE0F116E000009
:1005D00000D000D0E86A125AD8A01200110600D04C
:1005E00000D0F5D70009D8B412001F6E11C0E9FF82
:1005F00012C0EAFF126A116A1FBE07D0EE50116ED8
:100600001FA21200EF50126E120004D8EF14D8A4EB
:10061000112A1200010E1FB0E8441FB2E8441FB2B5
:10062000E8441FB4E8381200010F1E6E0A0E156E62
:10063000166A32D81E2EFDD7195012002F6A306A62
:10064000316A326A210E176E15D02F3630363136A8
:10065000323619502F5C1A5030581B5031581C50EC
:10066000325808E3326E19502F5E1A50305A1B5020
:10067000315AD8801136123613361436172EE5D774
:1006800032C01CF031C01BF030C01AF02F50196E70
:100690001200126A166A156E1A6A196A100EF36E43
:1006A000123419361A361550195C16501A5805E3CB
:1006B0001550195E16501A5AD88011361236F32E7C
:1006C000EFD71150120020501A18800BF46E20AE94
:1006D00005D01F1E201E1F2AD8B4202A1AAE05D00E
:1006E000191E1A1E192AD8B41A2A156A116A126A12
:1006F000166A1A5002E1195018E0100EF36ED890E5
:100700001F362036153616361A50165C02E119507F
:10071000155C07E31950155ED8A016061A50165E30
:10072000D88011361236F32EEAD7F4AE05D0111E5A
:10073000121E112AD8B4122A1150120014C032F01D
:1007400013C031F012C030F011C02FF03150190237
:10075000F3CF13F0F4CF14F030501A02F3501326F5
:10076000F45014222F501B02F3501326F45014227D
:1007700032501902F350142631501A02F350142645
:1007800030501B02F35014262F501C02F350142635
:100790002F501902F3CF11F0F4CF12F0305019029C
:1007A000F3501226F4501322000E14222F501A0276
:1007B000F3501226F4501322000E1422120015508A
:1007C0001D02F3CF19F0F4CF1AF016501D02F350AA
:1007D0001A2615501E02F3501A2619501200156AD7
:1007E000166A04D01232113215361636FF0FFAE2AD
:1007F00016C012F01550116E1200116E12BE02D802
:1008000011501200111E121E114A122A1200D89005
:1008100012321132FF0FFBE211501200EF1203D01F
:10082000FF0AEF1601D0FF0AE988E92AEC16120048
:10083000A66AA68E0900F55002E0EE6EFBD7120004
:10084000F34E02D0E652FCD7E6CFEEFFE82EFCD7FF
:100850001200A66AA68EEE500900F55C02E1F5666C
:10086000FAD712003FC01FF03F8C0ED8D90E3A6E57
:100870005B0E396E5E0E386E7D0E376EC7EC06F07D
:100880001FAC3F9C3650120034BE06D13352D8B450
:1008900003D13FC01DF03F8C7E0E335C1E6E7E0E7A
:1008A000336E3A6A396A386A7F0E376EF30E365CF9
:1008B000040ED8A0050E355C350ED8A0360E345C7B
:1008C00002E36FD903D0332A6CD91E0636C011F06B
:1008D00035C012F034C013F033C014F0710E3A6E0C
:1008E0005F0E396E550E386E800E376E5CD911C0B2
:1008F0003AF012C039F013C038F014C037F0C7EC2A
:1009000006F0C60E3A6EF50E396E1F0E386E800E6A
:10091000376E49D936C015F035C016F034C017F01F
:1009200033C018F011C036F012C035F013C034F0E7
:1009300014C033F08A0E3A6E120E396E790E386E8C
:100940007D0E376EC7EC06F0F60E3A6E460E396E27
:10095000550E386E7E0E376E26D915C03AF016C089
:1009600039F017C038F018C037F0ABD936C015F0E1
:1009700035C016F034C017F033C018F01450336E81
:10098000376E1350346E386E1250356E396E11500A
:10099000366E3A6EFCD936C025F035C026F034C02C
:1009A00027F033C028F015C03AF016C039F017C050
:1009B00038F018C037F0EBD911C03AF012C039F056
:1009C00013C038F014C037F0E2D925C03AF026C081
:1009D00039F027C038F028C037F037663706E1D83D
:1009E00011C03AF012C039F013C038F014C037F01B
:1009F000DAD81E5252E036C025F035C026F034C099
:100A000027F033C028F01EC033F0000E33BEFF0EB7
:100A1000346E356E366E7CEC07F036C011F035C0A2
:100A200012F034C013F033C014F0830E3A6E800E0F
:100A3000396EDE0E386E720E376EA9D925C03AF0C7
:100A400026C039F027C038F028C037F0ACD836C0FF
:100A500025F035C026F034C027F033C028F011C08F
:100A600036F012C035F013C034F014C033F03A6AD7
:100A7000800E396E310E386E7E0E376E88D925C0E5
:100A80003AF026C039F027C038F028C037F08BD8AC
:100A90001DBC03D03F9C01D03F8A36501200385015
:100AA0003418426E42BE34D038BE19D03750335C51
:100AB000D8A0000CD8A4010C3850345CD8A0000C8D
:100AC000D8A4010C3950355CD8A0000CD8A4010C76
:100AD0003A50365CD8A0000CD8A4010C000C33505E
:100AE000375CD8A0000CD8A4010C3450385CD8A0D6
:100AF000000CD8A4010C3550395CD8A0000CD8A447
:100B0000010C36503A5CD8A0000CD8A4010C000CA3
:100B100034AE010C000C34503818426E42BE34D052
:100B200034BE19D03350375CD8A0000CD8A4010CC7
:100B30003450385CD8A0000CD8A4010C3550395C76
:100B4000D8A0000CD8A4010C36503A5CD8A0000CF8
:100B5000D8A4010C000C3750335CD8A0000CD8A4EA
:100B6000010C3850345CD8A0000CD8A4010C3950CA
:100B7000355CD8A0000CD8A4010C3A50365CD8A043
:100B8000000CD8A4010C000C38AE010C000C3A6A21
:100B9000396A7E0E376E800E34AE000E386E03D882
:100BA00044D1800E381A3750335C3E6E11E23E6CF1
:100BB000335037C033F0376E345038C034F0386EAD
:100BC000355039C035F0396E36503AC036F03A6E8D
:100BD0001A0E3E6074D0375272E03D6A3450416E56
:100BE0003818406E348E388E080E3E5E08E33AC0E8
:100BF0003DF039C03AF038C039F0386AF5D73E26B2
:100C000007E0D890383239323A323D323E2EF9D7A9
:100C100040AE33D03A50365E3950355A3850345A97
:100C200007E2D880000E365635563456800E411AEB
:100C30003D6C04E03606000E355A345A040E3E6E02
:100C400034660DD035C034F036C035F03DC036F0D6
:100C50003D6A080E335E29E33E2EF2D726D034BE1D
:100C600008D0D8903D36363635363436332EF7D761
:100C70001CD03DAE22D03D6A0FD03A5036263950B6
:100C800035223850342206E33432353236323D32A2
:100C9000334A0DD03DAE11D0363E0FD0353E0DD08B
:100CA000343E0BD0D8803690EFD7336A02D03F82E3
:100CB0003368366A356A800E346E41AE349E3650E3
:100CC00012003450316E3818406E375051E03352B4
:100CD00052E0335E7F0E03E2332603E24BD033262D
:100CE0004CE236C02FF035C030F0318E388E180E01
:100CF000416E366A356A346A0BD03A502F5C3950EF
:100D0000305811E3306E316A3A502F5E0BD004E256
:100D10003850315CF2E007E33A502F5E3950305AD8
:100D20003850315AD8803636353634362F3630364C
:100D30003136412EECD734BE07D033521BE040325F
:100D40003306412A4036E3D707E23A502F5E395046
:100D5000305A3850315A17E3363E15D0353E13D04D
:100D6000343E11D0343235323632333E0CD005D0D9
:100D70003F8604D03F84336A02D03F823368366AAC
:100D8000356A800E346E40AE349E365012003450B8
:100D9000316E3818406E3350D8A437503AE03326BD
:100DA0007E0E03E3335E03E336D0335E31E336C0B9
:100DB0002FF035C030F0318E388E366A356A346A9D
:100DC000180E416E313230322F3206E33A50362659
:100DD0003950352238503422343235323632412EB1
:100DE000F1D734BE07D0363635363436335210E0BC
:100DF0003306313416E3363E14D0353E12D0343E3D
:100E000010D0D880343235323632333E0AD003D057
:100E10003F84336A02D03F823368366A356A800E77
:100E2000346E40AE349E3650120033C041F0345020
:100E300036C034F0366E3636413236323F6A363698
:100E4000413602E33F843F7E06E13F80416A366AD5
:100E5000356A346A0BD0412803E0D880363206D098
:100E6000D890363202E13F8201D03F863FB604D0AF
:100E70003FA20FD03FB407D07F0E366EFF0E356E07
:100E8000346E336E23D0800E366E01D0366A000E7B
:100E9000F6D73FB0FBD7336A9F0E4160EBD77E0E8B
:100EA0004164F4D79E0E415C07E0D890363235326B
:100EB00034323332412AF6D73FA408D0D880000E0E
:100EC000335634563556365636AEE0D733501200C8
:100ED000336E000E33BEFF0E346E356E366E0CD0A0
:100EE000000E34BEFF0E356E366E06D0336E346A99
:100EF000356A366A409E0AD0409E36AE07D0D8800A
:100F0000000E3356345635563656408E960E416E88
:100F1000365209E0080E412634C033F035C034F0B3
:100F200036C035F011D035520FE1080E415E345015
:100F300007E1080E415E335002E1365010D0336AAB
:100F4000356E33C034F0336A35BE06D0D8903336B0
:100F5000343635364106F8D740AE359E415033C061
:100F600036F0336E355034C035F0346E12002450F4
:100F70004D544B3136312C302A3238003A2042431E
:100F8000545241434B20000024505542582C3430D9
:100F90002C474C4C2C302C302C302C302A35430034
:100FA00024505542582C34302C5A44412C302C308B
:100FB0002C302C302A34340024505542582C3430F4
:100FC0002C4753562C302C302C302C302A353900FD
:100FD00024505542582C34302C4753412C302C305F
:100FE0002C302C302A34450024505542582C3430B3
:100FF0002C524D432C302C302C302C302A343700DE
:1010000024505542582C34302C4747412C312C3138
:101010002C302C302A35410024505542582C343085
:101020002C5654472C312C312C302C302A3545008D
:1010300024504D544B3331342C302C302C312C3146
:101040002C302C302C302C302C302C302C302C30C0
:101050002C302C302C302C302C302C302C302A32B0
:10106000380024504D544B3130312A333200474E32
:101070004747412C3132303030302E3030302C3335
:101080003531352E393237392C4E2C30313934390F
:101090002E3231362C452C312C31302C312E322C45
:1010A0003230302E302C4D2C2D33342E322C4D2C12
:1010B0002C303030302A000047505654472C333003
:1010C000392E36322C542C202C4D2C302E31332CF2
:1010D0004E2C302E322C4B2C412A32330000212151
:1010E00021214E4F20454E4F5547482053415445EE
:1010F0004C49544553002121212147505320434F4F
:101100004D4D554E49434154494F4E204552524F43
:101110005220202000005445535420444520000014
:1011200042414C4C4F4F4E205041594C4F4144206E
:1011300056200000204259204F4D3342430054793D
:1011400070652048454C5020666F7220496E666F6E
:1011500000004543484F00004D5943004D5943415D
:101160004C4C000054520000545241434500545826
:101170004400545844454C415900554E5000554E7A
:1011800050524F544F00444953500000444953506B
:101190004C41590048454C5000005345524750536C
:1011A00000005454455854005441494C00005359D0
:1011B0004D424F4C0000484F4C440000484F4C44B7
:1011C0004F4646005458540054585441494C00006E
:1011D0005645520056455253494F4E0043574944D5
:1011E0000000435742415400435754454D500000BE
:1011F00050524553530050524553535552450000E9
:10120000465251004652455155454E4359005246AB
:101210005251000044455600444556494154494FF7
:101220004E0042415544000053504545440044425D
:10123000495453005342495453004241545600000C
:1012400054454D500000494E54454D5000004558FE
:1012500054454D500000504F55540000504F5745D5
:101260005200494453500000435753500000534F1D
:101270004C415200534F4C415243454C4C00555346
:101280004F4C000049534F4C00005355505600003E
:1012900043574C0043574C4F43004C4F4341544F2E
:1012A00052004C4F433130005245460044415441B6
:1012B0000000534C454550005445535400004341F1
:1012C0004C49425241544500534554500000475048
:1012D000530055424C4F5800415052530000525455
:1012E000545900004F4646534554000054454C00A5
:1012F00054454C454D4554525900524441544100C7
:1013000052415700455849540000436F6D6D616E5E
:1013100064206973206E6F742076616C69640000CC
:1013200031202D206F6E626F6172642074656D7064
:101330002E2032202D2065787465726E616C2074C9
:10134000656D702E2033202D2052432074656D7002
:10135000657261747572650034202D206261746558
:10136000727920766F6C746167652035202D20734B
:10137000797374656D20766F6C74616765203620B3
:101380002D20736F6C617220766F6C7461676520BD
:1013900037202D20636861726765206375727265FE
:1013A0006E74000038202D206169722070726573A0
:1013B000737572652039202D206865617264207311
:1013C000617474656C6974657300436831202D2005
:1013D0000000436832202D200000436833202D2078
:1013E0000000436834202D200000436835202D2064
:1013F000000043414C494252415445204F4E0000A9
:10140000534554204652455155454E4359204F4E61
:1014100020504F5254412E3220544F203132303020
:1014200020487A007479706520552870292C204452
:10143000286F776E292C20532861766529207265E4
:1014400073702E2045286E6429004D5943616C6CE1
:101450002000504F574552204F55543A20005443D6
:10146000584F204652455155454E43593A200000A9
:101470005254545920262043572046524551554531
:101480004E43593A2000415052532046524551553F
:10149000454E43593A200000525454593A20000016
:1014A000444556494154494F4E3A20005350454512
:1014B000443A20004441544120424954533A2000C8
:1014C00053544F5020424954533A200042415456FD
:1014D0006F6C746167653A200000535550706C79E9
:1014E000566F6C746167653A200054454D506572C3
:1014F00061747572653A2000494E7465726E616C54
:1015000054454D50657261747572653A20004558B6
:101510007465726E616C54454D506572617475727C
:10152000653A2000435749443A200000435753503E
:101530003A20000043574C4F433A20004357424162
:10154000543A2000435754454D503A2000004C4F28
:101550004341544F523A20004C4F4331303A20001F
:10156000415052533A200000554E50726F746F2014
:101570000000545844656C61793A20005458546115
:10158000696C3A20000053594D424F4C3A200000FC
:1015900054526163653A20005441494C3A2000009E
:1015A000457665727920000054544558543A20001D
:1015B000484F4C444F46463A2000434F4E54494E04
:1015C000554F5553205452414E534D495353494F53
:1015D0004E004543484F3A200000534F4C41523A89
:1015E0002000536F6C6172566F6C746167653A20AE
:1015F0000000536F6C617243757272656E743A20AD
:1016000000005155454354454C00505245535355E5
:1016100052453A200000534C4545503A200053456E
:10162000524750533A200000343830302042640092
:101630003936303020426400313932303020426453
:10164000000054656C656D657472793A20005465CC
:101650006C656D6574727920646174613A20000074
:101660004E4F524D414C00002C204368323A20002E
:101670002C204368333A20002C204368343A200061
:101680002C204368353A20004D61782064657669E6
:101690006174696F6E206973203130303020487A70
:1016A00000004D6178206261756472617465206923
:1016B000732031303030204264004D617820646105
:1016C00074612062697473206973203800004D6171
:1016D000782073746F70206269747320697320328C
:1016E000000056455253494F4E3A204243504C2039
:1016F000762E0000564261743A20000054656D70E9
:101700003A2000004E6F6D696E616C20506F7574E9
:101710003A20000055202D205057522055702C2083
:1017200044202D2050575220446F776E2C204520A6
:101730002D20457869742C2053202D205361766527
:101740000000436F6D6D616E647320287769746863
:10175000206578616D706C65293A200044495350CA
:101760002020202020202D20446973706C61792076
:10177000616C6C20736574696E6773004D594361C9
:101780006C6C202020202D20286D7963616C6C20EA
:101790004F4D3342432D313129005452616365204E
:1017A000202020202D2028786D69742F6F666629EF
:1017B00020666F7220646562756767696E67206F67
:1017C0006E6C7900545844656C61792020202D207E
:1017D000747864656C6179206E20303C6E3C3130E9
:1017E0003020286E2078203130206D732900545825
:1017F0005461696C202020202D2054582074616988
:101800006C2074696D6520286E2078203130206D41
:1018100073290000554E50726F746F2020202D20C8
:1018200028756E70726F746F2061707273207620ED
:1018300077696465312D3129202D20332064696753
:101840006973206D6178000053594D424F4C202040
:1018500020202D203220415052532073796D626F29
:101860006C73202D2064656661756C74206973202B
:1018700042414C4C4F4F4E20282F4F2900004652DA
:1018800051202020202020202D2066726571756552
:101890006E637920666F72204150525320696E202A
:1018A000487A0000524652512020202020202D202E
:1018B0006672657175656E637920666F7220525429
:1018C0005459202620435720696E20487A005254EC
:1018D00054592020202020202D204F4E206F722090
:1018E0004F464600415052532020202020202D20DA
:1018F0004F4E206F72204F46460044455620202010
:10190000202020202D20646576696174696F6E2027
:10191000696E20487A004241554420202020202032
:101920002D20626175647261746520666F72205249
:10193000545459207472616E736D697474696E6762
:101940000000444249545320202020202D206E7551
:101950006D626572206F6620646174616269747380
:101960000000534249545320202020202D206E7522
:101970006D626572206F662073746F706269747334
:1019800020312E35203D2031350042415456202053
:10199000202020202D2073656E64206261746572A2
:1019A0007920766F6C7461676520285254545929E8
:1019B000202D20594553206F72204E4F0000535563
:1019C00050562020202020202D2073656E64207327
:1019D0007570706C7920766F6C7461676520285221
:1019E00054545929202D20594553206F72204E4FB1
:1019F000000054454D502020202020202D207365CC
:101A00006E6420696E626F782074656D70657261B6
:101A10007475726520285254545929202D20594537
:101A200053206F72204E4F00494E54454D50202098
:101A300020202D2073656E6420726164696F636875
:101A400069702074656D70657261747572652028A7
:101A50005254545929202D20594553206F72204E3D
:101A60004F00455854454D50202020202D207365AF
:101A70006E642065787465726E616C2074656D703B
:101A80006572617475726520285254545929202D4D
:101A900020594553206F72204E4F0000504F55542F
:101AA0002020202020202D206F75747075742070E8
:101AB0006F77657220696E206D5700005245462091
:101AC0002020202020202D20584F206F72205443AA
:101AD000584F206672657175656E637920696E2056
:101AE000487A20286D696E2E203130303030303009
:101AF000302C206D61782E20333230303030303051
:101B0000000055424C4F5820202020202D204F4EC1
:101B1000203D2055424C4F582C204F4646203D201A
:101B20005155454354454C005052455353757265C9
:101B300020202D204F4E203D20424D503138302066
:101B400070726573656E742C204F4646203D206E82
:101B50006F742070726573656E740000484F4C445A
:101B60006F66662020202D20686F6C64206F66668B
:101B70002074696D6520696E206D696E757465737A
:101B80000000435749442020202020202D20736549
:101B90006E64204357206964656E74696669657276
:101BA000204F4E206F72204F46460000435742415F
:101BB0005420202020202D2073656E6420626174E3
:101BC00065727920766F6C746167652028435729A8
:101BD000202D20594553206F72204E4F000043574F
:101BE00054454D50202020202D2073656E642074B4
:101BF000656D706572617475726520284357292080
:101C00002D20594553206F72204E4F00435753509B
:101C10002020202020202D207370656564206F66B1
:101C2000204357206964656E74696669657220692E
:101C30006E2057504D0043574C202020202020205C
:101C40002D2073656E6420515241206C6F632E20ED
:101C5000616E6420616C74697475646520696E20BE
:101C60004357202D20594553206F72204E4F0000BE
:101C70004C4F4341544F522020202D2073656E64F9
:101C800020515241206C6F6361746F72202D205976
:101C90004553206F72204E4F00004C4F433130208F
:101CA000202020202D2073656E6420313020636851
:101CB00061722E206F6620515241206C6F632E207E
:101CC0004F4E203D2031302C204F4646203D2036BF
:101CD0002063686172616B7465727300534F4C418D
:101CE0005263656C6C202D206D6F756E7465642079
:101CF0002D204F4E206F72206E6F74206D6F756EA9
:101D0000746564202D204F46460055534F4C2020CB
:101D1000202020202D2073656E6420736F6C61720B
:101D200020766F6C74616765202D20594553206FB4
:101D300072204E4F000049534F4C2020202020207D
:101D40002D2073656E6420736F6C617220637572F1
:101D500072656E7420594553206F72204E4F0000FB
:101D60004543484F2020202020202D204F4E206F1B
:101D700072204F464600534C4545502020202020DD
:101D80002D20737769746368207468652047505309
:101D9000207265636569766572202D204F4E206F35
:101DA00072204F4646005345524750532020202072
:101DB0002D206261756472617465206F66204750E2
:101DC0005320726563656976657220283438303037
:101DD000206F722039363030206F72203139323026
:101DE0003029000043414C494252415445202D20A6
:101DF00063616C6962726174652031323030487A97
:101E00000000444154412020202020202D206964DE
:101E1000656E74696669636174696F6E206F6620B0
:101E200074686520726164696F206368697000007E
:101E3000475053202020202020202D204F4E202DA1
:101E400020666F72206E6F726D616C206D6F6465BD
:101E50002C204F4646202D20666F722074657374C7
:101E6000696E6720776974686F75742047505320D6
:101E700072656365697665720000564552202020C0
:101E8000202020202D20736F667477617265207684
:101E9000657273696F6E00004558495420202020F8
:101EA00020202D20656E64206F6620636F6D6D614C
:101EB0006E6420696E74657270726574657200007C
:101EC0005441494C20287461696C207465787420F1
:101ED0006576657279206E292D286F6E2C6F666687
:101EE0002C6E292D6E3D30206973206F666620614F
:101EF0006E6420313C6E3C39206576657279206EC7
:101F00002D7468206D65737361676500545445587E
:101F10005420202020202D207461696C2074657865
:101F200074202D20313030206368617273206D6120
:101F300078005461696C207465787420636F6D6DEE
:101F4000616E64733A005C55202020202020202000
:101F50002D2073656E642062617465727920766FDE
:101F60006C74616765005C562020202020202020B2
:101F70002D2073656E642073797374656D20766FA0
:101F80006C74616765005C53202020202020202095
:101F90002D2073656E6420736F6C617220766F6C98
:101FA0007461676500005C492020202020202020EB
:101FB0002D2073656E6420736F6C6172206375727F
:101FC00072656E7400005C542020202020202020A8
:101FD0002D2073656E6420696E7465726E616C206D
:101FE00074656D7065726174757265005C5820204F
:101FF0002020202020202D2073656E6420657874B9
:1020000065726E616C2074656D7065726174757255
:1020100065005C5720202020202020202D20736583
:102020006E6420726164696F636869702074656DA5
:10203000706572617475726500005C50202020200C
:10204000202020202D2073656E64207072657373CC
:10205000757265005C4620202020202020202D2045
:1020600073656E642074656D7065726174757265F8
:102070002066726F6D207072657373757265207360
:10208000656E736F72005C4220202020202020208B
:102090002D2073656E64206E756D626572206F66AB
:1020A00020726563656976656420736174656C6C24
:1020B0006974657300005C5A2020202020202020B5
:1020C0002D20736F6674776172652076657273690F
:1020D0006F6E000054454C656D65747279202D203B
:1020E0004F4E206F72204F4646005241572020200D
:1020F000202020202D207365742072617720746564
:102100006C656D6574726963206461746120283048
:102110002D39393929004176616C6961626C65201D
:1021200076616C75657320666F722074656C656D81
:10213000657472793A0031202D206F6E626F617282
:10214000642074656D70657261747572650032200B
:102150002D2065787465726E616C2074656D706594
:10216000726174757265000033202D20726164699C
:102170006F636869702074656D70657261747572E3
:10218000650034202D2062617465727920766F6C51
:1021900074616765000035202D2073797374656D57
:1021A00020766F6C74616765000036202D20736F98
:1021B0006C617263656C6C20766F6C74616765002E
:1021C00037202D206368617267696E6720637572BE
:1021D00072656E74000038202D2061697220707263
:1021E000657373757265000039202D206865617212
:1021F000642073617474656C6974657300003020C9
:102200002D206368616E6E656C206E6F742075732F
:1022100065640000526164696F2063686970206EB4
:102220006F7420636F6E6E65637465640000526145
:1022300064696F206368697020636F6D6D756E6986
:10224000636174696F6E206572726F72000043681B
:102250006970205265766973696F6E3A200050612B
:1022600072743A205369000050617274204275699B
:102270006C643A203078000044657363726970744E
:10228000696F6E2049643A2030780000437573749A
:102290006F6D65722049643A20307800524F4D20AE
:1022A00049643A203078000024504D544B3130328C
:1022B0002A33310053617665643A20004E6F7420F2
:1022C0007361766564202D2041637475616C20769E
:1022D000616C75653A2000004E6F20636F6D6D75FF
:1022E0006E69636174696F6E0000424354524143EA
:1022F0004B2000002C3030303030303030004E6F0A
:102300007468696E6700496E742E54656D700000C4
:102310004578742E54656D70000052432E54656DDF
:1023200070004261742E566F6C7400005379732EE6
:10233000566F6C740000536F6C2E566F6C740000F7
:10234000536F6C2E43757272000050726573737513
:102350007265000053617474656C69746573000084
:102360003A5041524D2E00003A554E49542E00002D
:102370003A45514E532E00003A424954532E3030C4
:102380003030303030302C42414C4C4F4F4E204595
:1023900058504552494D454E54002C4E432C4E4307
:1023A0002C4E432C4E432C4E432C4E432C4E432C50
:1023B0004E43000054656D70496E0000302C302E85
:1023C000312C2D34300054656D7045780000546513
:1023D0006D7052430000302C302E3030322C3000E3
:1023E000302C302E30312C300000302C312C2D315F
:1023F00030300000302C312C353000000800000057
:10240000090000000A0000000B0000000C000000A2
:102410000D0000000E00000010000000120000007F
:1024200014000000170000001A0000001E00000049
:1024300022000000270000002D00000036000000F0
:10244000460000005E0000007F0000007F000000EA
:102450007F00000008000000090000000A000000E2
:102460000B0000000C0000000D0000000E0000003A
:10247000100000001200000014000000170000000F
:102480001A0000001E0000002200000027000000CB
:102490002D00000036000000460000005E00000035
:1024A0007F0000007F0000007F00000008000000A7
:1024B000090000000A0000000B0000000C000000F2
:1024C0000D0000000E0000001000000012000000CF
:1024D00014000000170000001A0000001E00000099
:1024E00022000000270000002D0000003600000040
:1024F000460000005E0000007F0000007F0000003A
:102500007F000000400E3F6E006A7086A00E756E60
:10251000010E766E200E726E900E716E0F01386B8A
:10252000396B3A6B796A786A606A0001AB0E926E19
:102530009A0E936E1D0E946EF40ED36ED26AC00E78
:102540009B6E796A786AF26AF16AF06A816A010EB2
:10255000C26E080EC16EAB0EC06E0B0E0F01386F4F
:10256000396B080E3A6FE00E426F416F100E406FEC
:102570009E0E9C6E9D6AA06A040E9F6EA26A070E54
:10258000D56E460ECD6ECC6ABD6A2F0EBA6E140E95
:10259000516F4E6B4A6BC66A6C6AAC98AC84B88655
:1025A000060EB06E800EAF6EAB9E7086729872840F
:1025B000060E766E800E756E718E0301176B186BAA
:1025C000196B156B166B00EE8AF0EF6A00EE90F057
:1025D000EF6A00EE9BF0EF6A00EEA6F0EF6A00EE05
:1025E000B1F0EF6A00EEBCF0EF6A00EEC7F0EF6A00
:1025F00000EED2F0EF6A0601786B776B766B756B45
:102600007A6B796B636BB56B706B6F6BB86B010E2C
:10261000B76FB981030118910601B99503014B6B9E
:102620004C6B4E6F2C0E4D6F010E0601946F2C0EED
:10263000936F640E956F996B030117931A6B0601E4
:10264000B997B999AA6A3A0EA96E69EC02F003012A
:102650002F6F69EC02F0306F000189EC47F0030145
:1026600012510001E8BC12D1030112510001E8B877
:102670001ED0800E026E400E096E226A9BC621F0AB
:10268000066A056A200E016EA66AA68E0F0EF76E08
:102690006E0EF66E0900F55003E066EC01F0FAD715
:1026A0000D0E66EC01F00A0E66EC01F0EFD0800E24
:1026B000026E400E096E226A9BC621F0066A056A08
:1026C000200E016EB50E66EC01F0620E66EC01F0B4
:1026D000060E66EC01F0110E66EC01F0020E66ECDF
:1026E00001F0000E66EC01F0080E66EC01F0040E3D
:1026F00066EC01F0250E66EC01F0950E66EC01F03B
:10270000B50E66EC01F0620E66EC01F0060E66ECAA
:1027100001F0090E66EC01F00D0E66EC01F0000E02
:1027200066EC01F0000E66EC01F0000E66EC01F0C4
:10273000000E66EC01F0000E66EC01F0FF0E66EC98
:1027400001F0FF0E66EC01F0000E66EC01F0000EE9
:1027500066EC01F0000E66EC01F0000E66EC01F094
:10276000000E66EC01F0000E66EC01F0070E66EC60
:1027700001F0210E66EC01F0AF0E66EC01F0800E68
:10278000026E400E096E226A9BC621F0066A056A37
:10279000200E016EB50E66EC01F0620E66EC01F0E3
:1027A000060E66EC01F0110E66EC01F0000E66EC10
:1027B00001F0000E66EC01F0170E66EC01F04B0E16
:1027C00066EC01F0640ED7EC02F0800E026E400E53
:1027D000096E226A9BC621F0066A056A200E016E08
:1027E000B50E66EC01F0620E66EC01F0060E66ECCA
:1027F00001F0570E66EC01F0080E66EC01F0000ED9
:1028000066EC01F0010E66EC01F0000E66EC01F0E2
:10281000000E66EC01F0000E66EC01F0500E66EC66
:1028200001F04F0E66EC01F0540E66EC01F0530E11
:1028300066EC01F0AC0E66EC01F0850E66EC01F082
:10284000800E026E400E096E226A9BC621F0066A57
:10285000056A200E016EB50E66EC01F0620E66ECA4
:1028600001F0060E66EC01F0570E66EC01F0000E6A
:1028700066EC01F0000E66EC01F05D0E66EC01F016
:102880001D0E66EC01F0640ED7EC02F0949A8B8A70
:1028900094928B925A0E03015C630AD05A0E5D63C8
:1028A00007D05A0E5E6304D05F515A0A000102E05D
:1028B000000E01D0010E3C6E000E030112B7010E96
:1028C0003C16000119E003012C6B2B6B010E030178
:1028D0002C5D000106E310E12D0E03012B5D0001CC
:1028E0000BE2070E166ED00ED8EC02F003012B2B74
:1028F000000E2C230001EAE39482949A8B8A640EE2
:10290000D7EC02F0949A8B8A020E166E580ED8EC11
:1029100002F0949A8B9A46C65CF645C65BF644C6AE
:102920005AF643C659F6C2EC4AF0C80ED7EC02F08C
:10293000070E0501E06F020EE16F010EE26FE36F1B
:102940005CC6E4F55BC6E5F55AC6E6F559C6E7F59B
:10295000000168EC50F0140ED7EC02F0040E0501F3
:10296000E06F200EE16FE26BE36BE46B000168EC5B
:1029700050F0140ED7EC02F0080E0501E06F130EB4
:10298000E16F040EE26F150EE36F210EE46F200E6F
:10299000E56F080EE66F0B0EE76FE86B000168EC61
:1029A00050F013EC5BF092EC26F0080E06013E2589
:1029B00003011C6F050E0501E06F110EE16F200E83
:1029C000E26F010EE36F510EE46F1CC3E5F50001E9
:1029D00048EC50F0060E0501E06F110EE16F200E7D
:1029E000E26F020EE36F0D0EE46FE56BE66B000124
:1029F00048EC50F0050E0501E06F110EE16F220E5C
:102A0000E26F010EE36FE46B080EE56F000148EC26
:102A100050F061C62CF6060161510001E8BE08D0F5
:102A2000180E0601615D000103E3170E0601616FD8
:102A3000000199EC25F00601626B0001AAEC25F07B
:102A4000050E0501E06F110EE16FE26B010EE36F01
:102A5000E46FE56F000148EC50F00C0E0501E06FEB
:102A6000110EE16F200EE26F080EE36F180EE46F97
:102A7000010EE56FE66B080EE76F020EE86F800E41
:102A8000E96FEA6BF00EEB6F100EEC6F000148EC93
:102A900050F00D0E0501E06F110EE16F200EE26F98
:102AA000090EE36F220EE46FE56B820EE66F030EF4
:102AB000E76FEE0EE86FA20EE96F020EEA6F5D0E91
:102AC000EB6F020EEC6FED6B000148EC50F00C0E5A
:102AD0000501E06F110EE16F200EE26F080EE36F4B
:102AE000420EE46FA40EE56F030EE66FD60EE76F9D
:102AF000030EE86FE96BF50EEA6F010EEB6F800EC7
:102B0000EC6F000148EC50F0100E0501E06F110E63
:102B1000E16F210EE26F0C0EE36FE46BA20EE56F26
:102B2000810EE66F260EE76FAF0EE86F3F0EE96F7E
:102B3000EE0EEA6FC80EEB6FC70EEC6FDB0EED6F9B
:102B4000F20EEE6F020EEF6F080EF06F000148EC10
:102B500050F0100E0501E06F110EE16F210EE26FD3
:102B60000C0EE36FE46F070EE56F030EE66F150EB4
:102B7000E76FFC0EE86F0F0EE96FEA6BA20EEB6FCA
:102B8000810EEC6F260EED6FAF0EEE6F3F0EEF6F06
:102B9000EE0EF06F000148EC50F0100E0501E06FF2
:102BA000110EE16F210EE26F0C0EE36F180EE46F51
:102BB000C80EE56FC70EE66FDB0EE76FF20EE86F2B
:102BC000020EE96F080EEA6F070EEB6F030EEC6F53
:102BD000150EED6FFC0EEE6F0F0EEF6FF06B000138
:102BE00048EC50F0080E0501E06F110EE16F220E67
:102BF000E26F040EE36FE46B080EE56F7F0EE66F85
:102C0000E76B3D0EE86F000148EC50F00B0E05013C
:102C1000E06F110EE16F230EE26F070EE36FE46BBE
:102C20002C0EE56F0E0EE66F0B0EE76F040EE86FCD
:102C30000C0EE96F730EEA6F030EEB6F000148ECA8
:102C400050F07BEC25F0D6EC25F0320ED7EC02F0FC
:102C5000C2EC25F078EC68F07BEC25F0BCEC26F0BB
:102C6000350E0601606F00017FEC6CF0EAEF29F091
:102C7000719E9482030112510001E8AA02D017EC60
:102C80005DF0030114510001E8AA02D0DBEC55F01D
:102C9000030112350001D8A058D00EEC45F000EE2B
:102CA000E8F0EE50FEE1ED520F0EF76E7C0EF66E80
:102CB00018EC04F0020E016E086A1A6A0E0E196E04
:102CC00069EC00F02E0EEE6E020E016E010E086E23
:102CD0008C0E67EC00F0EF6A06018F6B040E0301A7
:102CE0001C6F000100EEE8F003011C51E926000E04
:102CF000EA22EF500C6E0C5200010FE000EEE8F0FB
:102D000003011C51E926000EEA22EF500C6E060169
:102D10008F1B03011C2B0001E4D700EEE8F0EE50FE
:102D2000FEE1ED522A0EEE6E020E016E086E0601F5
:102D30008F514FEC00F00D0EEE6E0A0EEE6EEF6A44
:102D40000001BBEC26F054EC65F0030112510001C8
:102D5000E8BC67D282949494640ED7EC02F0948419
:102D6000030E166EE80ED8EC02F0030112510001BA
:102D7000E8A837D2800E026E400E096E226A9BC60A
:102D800021F0066A056A200E016EB50E66EC01F0B0
:102D9000620E66EC01F0060E66EC01F03B0E66EC8E
:102DA00001F02C0E66EC01F0000E66EC01F0010E55
:102DB00066EC01F0060E66EC01F0000E66EC01F028
:102DC000000E66EC01F0000E66EC01F0900E66EC71
:102DD00001F0020E66EC01F0000E66EC01F0E80E68
:102DE00066EC01F0030E66EC01F0000E66EC01F0FB
:102DF000000E66EC01F0100E66EC01F0800E026E23
:102E0000400E096E226A9BC621F0066A056A200EF2
:102E1000016E270E66EC01F0000E66EC01F0000E6C
:102E200066EC01F0000E66EC01F0000E66EC01F0BD
:102E3000000E66EC01F0000E66EC01F0000E66EC90
:102E400001F0000E66EC01F0000E66EC01F0000EE1
:102E500066EC01F02C0E66EC01F0010E66EC01F060
:102E6000000E66EC01F0000E66EC01F04F0E66EC11
:102E700001F0C10E66EC01F0030E66EC01F0000EED
:102E800066EC01F0800E026E400E096E226A9BC64F
:102E900021F0066A056A200E016E860E66EC01F0CE
:102EA000020E66EC01F0000E66EC01F0000E66EC1E
:102EB00001F0FE0E66EC01F0000E66EC01F0000E73
:102EC00066EC01F0000E66EC01F0640E66EC01F0B9
:102ED000400E66EC01F0010E66EC01F0000E66ECAF
:102EE00001F0930E66EC01F0950E66EC01F0800E99
:102EF000026E400E096E226A9BC621F0066A056AC0
:102F0000200E016EB50E66EC01F0620E66EC01F06B
:102F1000060E66EC01F03B0E66EC01F0000E66EC6E
:102F200001F0000E66EC01F0410E66EC01F0C90EF6
:102F300066EC01F0640ED7EC02F0800E026E400EDB
:102F4000096E226A9BC621F0066A056A200E016E90
:102F5000B50E66EC01F0620E66EC01F0060E66EC52
:102F600001F0160E66EC01F0080E66EC01F0000EA2
:102F700066EC01F0010E66EC01F0030E66EC01F068
:102F8000030E66EC01F0000E66EC01F0510E66ECEB
:102F900001F0080E66EC01F0000E66EC01F0000E88
:102FA00066EC01F0840E66EC01F0150E66EC01F0A3
:102FB000800E026E400E096E226A9BC621F0066AE0
:102FC000056A200E016EB50E66EC01F0620E66EC2D
:102FD00001F0060E66EC01F0160E66EC01F0000E34
:102FE00066EC01F0000E66EC01F01C0E66EC01F0E0
:102FF0005A0E66EC01F0640ED7EC02F0800E026E01
:10300000400E096E226A9BC621F0066A056A200EF0
:10301000016EB50E66EC01F0620E66EC01F0060E74
:1030200066EC01F0110E66EC01F0020E66EC01F0A8
:10303000000E66EC01F0080E66EC01F0040E66EC82
:1030400001F0250E66EC01F0950E66EC01F0B50E70
:1030500066EC01F0620E66EC01F0060E66EC01F023
:10306000090E66EC01F00D0E66EC01F0000E66EC48
:1030700001F0000E66EC01F0000E66EC01F0000EAF
:1030800066EC01F0000E66EC01F0FF0E66EC01F05C
:10309000FF0E66EC01F0000E66EC01F0000E66EC2F
:1030A00001F0000E66EC01F0000E66EC01F0000E7F
:1030B00066EC01F0000E66EC01F0070E66EC01F024
:1030C000210E66EC01F0AF0E66EC01F0800E026E90
:1030D000400E096E226A9BC621F0066A056A200E20
:1030E000016EB50E66EC01F0620E66EC01F0060EA4
:1030F00066EC01F0110E66EC01F0000E66EC01F0DA
:10310000000E66EC01F0170E66EC01F04B0E66EC5B
:1031100001F0640ED7EC02F000EEE8F00F0EF76E4F
:10312000880EF66E18EC04F0EF6A16EC6CF0640E84
:10313000D7EC02F000EEE8F00F0EF76EA00EF66E80
:1031400018EC04F0EF6A16EC6CF0640ED7EC02F0A9
:1031500000EEE8F00F0EF76EB80EF66E18EC04F005
:10316000EF6A16EC6CF0640ED7EC02F000EEE8F0BB
:103170000F0EF76ED00EF66E18EC04F0EF6A16EC38
:103180006CF0640ED7EC02F000EEE8F00F0EF76E74
:10319000E80EF66E18EC04F0EF6A16EC6CF0640EB4
:1031A000D7EC02F000EEE8F0100EF76E000EF66EAF
:1031B00018EC04F0EF6A16EC6CF0640ED7EC02F039
:1031C00000EEE8F0100EF76E180EF66E18EC04F034
:1031D000EF6A16EC6CF0640ED7EC02F0CBEC62F008
:1031E0000BD000EEE8F0100EF76E300EF66E18EC15
:1031F00004F0EF6A16EC6CF0640ED7EC02F08DEC84
:103200006BF00301183100010CE3300E0601606F12
:1032100000017FEC6CF0010E166EF40ED8EC02F09B
:10322000A4D53D0E0601606F2CC661F6000199EC35
:1032300025F0A2D1030156530001D8B49DD1030E4D
:103240000601995D000106E2EA0E166E600ED8ECEA
:1032500002F092D103011731000103E3010E0301D3
:10326000566F030112510001E8A486D003011251E8
:103270000001E8B81ED0800E026E400E096E226A70
:103280009BC621F0066A056A200E016EA66AA68E0C
:103290000F0EF76E6E0EF66E0900F55003E066EC49
:1032A00001F0FAD70D0E66EC01F00A0E66EC01F0A3
:1032B0005ED0800E026E400E096E226A9BC621F01F
:1032C000066A056A200E016EB50E66EC01F0620E0C
:1032D00066EC01F0060E66EC01F0570E66EC01F0AC
:1032E000080E66EC01F0000E66EC01F0010E66ECD3
:1032F00001F0000E66EC01F0000E66EC01F0000E2D
:1033000066EC01F0500E66EC01F04F0E66EC01F039
:10331000540E66EC01F0530E66EC01F0AC0E66EC58
:1033200001F0850E66EC01F0800E026E400E096E13
:10333000226A9BC621F0066A056A200E016EB50E50
:1033400066EC01F0620E66EC01F0060E66EC01F030
:10335000570E66EC01F0000E66EC01F0000E66EC14
:1033600001F05D0E66EC01F01D0E66EC01F0640EDE
:10337000D7EC02F094928B92A20ED36ED2889B9CD3
:10338000C290020E0301565D000109E303015607D6
:10339000010E166ED50ED8EC02F00001F2D7010E28
:1033A0000301246FD50E236F14510001E8A605D048
:1033B000200E0301235F000E245B03011231000184
:1033C00005E3400E0301235F000E245B0301123569
:1033D000000105E3730E0301235F000E245B03016C
:1033E00014510001E8AA07D0060E0301235F000E66
:1033F000245B000112D0030114510001E8AC0DD090
:10340000750E0301235F000E245B1435000105E3F4
:10341000750E0301235F000E245B24C316F0030125
:103420002351D8EC02F09B8CD298F40ED36EC2805C
:1034300012510001E8A611D023EC53F006017ABF27
:1034400008D07A53000109E10F0E0601795D0001F1
:1034500004E2D89003015637562B030112510001A4
:10346000E8A485D09482640ED7EC02F003011251D7
:103470000001E8B81ED0800E026E400E096E226A6E
:103480009BC621F0066A056A200E016EA66AA68E0A
:10349000100EF76E620EF66E0900F55003E066EC52
:1034A00001F0FAD70D0E66EC01F00A0E66EC01F0A1
:1034B0005ED0800E026E400E096E226A9BC621F01D
:1034C000066A056A200E016EB50E66EC01F0620E0A
:1034D00066EC01F0060E66EC01F0570E66EC01F0AA
:1034E000080E66EC01F0000E66EC01F0010E66ECD1
:1034F00001F0000E66EC01F0000E66EC01F0000E2B
:1035000066EC01F0200E66EC01F04E0E66EC01F068
:10351000550E66EC01F0520E66EC01F07B0E66EC87
:1035200001F0C30E66EC01F0800E026E400E096ED3
:10353000226A9BC621F0066A056A200E016EB50E4E
:1035400066EC01F0620E66EC01F0060E66EC01F02E
:10355000570E66EC01F0000E66EC01F0000E66EC12
:1035600001F05D0E66EC01F01D0E66EC01F0070E39
:10357000166ED00ED8EC02F0AA6A2D0EA96E69EC78
:1035800002F00301566F5553000102E00301550795
:1035900000013CD9010E0601945D000108E305E13C
:1035A0002C0E0601935D000102E3000E01D0010E16
:1035B0003C6E000E030117B3010E3C16000106E03D
:1035C000030117810001A2EC23F00AD1030112319B
:1035D000000102E3BEEC23F0030E0601995D000139
:1035E000D8A0FED0030114510001E8AA02D0F5ECE6
:1035F00022F003011235000102E363EC63F00301E2
:1036000056530001D8B4BAD0130E166E880ED8ECFB
:1036100002F0FCD8010E0601945D000108E305E10B
:10362000F40E0601935D000102E3000E01D0010ECD
:103630003C6E000E030117B3010E3C16000106E0BC
:10364000030117810001A2EC23F00DD003011451F6
:103650000001E8AA02D0F5EC22F0030112350001C6
:1036600002E336EC63F0030112510001E8A486D0B6
:10367000030112510001E8B81ED0800E026E400E08
:10368000096E226A9BC621F0066A056A200E016E49
:10369000A66AA68E0F0EF76E6E0EF66E0900F55036
:1036A00003E066EC01F0FAD70D0E66EC01F00A0EAD
:1036B00066EC01F05ED0800E026E400E096E226A4A
:1036C0009BC621F0066A056A200E016EB50E66ECF7
:1036D00001F0620E66EC01F0060E66EC01F0570E8A
:1036E00066EC01F0080E66EC01F0000E66EC01F0ED
:1036F000010E66EC01F0000E66EC01F0000E66ECC7
:1037000001F0000E66EC01F0500E66EC01F04F0E79
:1037100066EC01F0540E66EC01F0530E66EC01F01D
:10372000AC0E66EC01F0850E66EC01F0800E026EC8
:10373000400E096E226A9BC621F0066A056A200EB9
:10374000016EB50E66EC01F0620E66EC01F0060E3D
:1037500066EC01F0570E66EC01F0000E66EC01F02D
:10376000000E66EC01F05D0E66EC01F01D0E66ECDD
:1037700001F0640ED7EC02F094928B92000E0301DC
:1037800014BD010E3C6E000E14BB010E3C16000170
:1037900027E003015653000105E02E0E166EE00EE1
:1037A000D8EC02F0E2EC26F0B3EC67F0000E030177
:1037B00014BF010E3C6E5653000102E1000E01D011
:1037C000010E3C1608E03A0E166E980ED8EC02F088
:1037D000F8EC67F005D0070E166ED00ED8EC02F0AC
:1037E000010E03015553D8A4000E3C6E000E14BB0D
:1037F000010E3C16000107E0AA6A2B0EA96E69ECC7
:1038000002F00301556F00011AEF19F00301125184
:103810000001E8AC4DD003EE60F0100EF76E6E0EB6
:10382000F66E18EC04F0EF6A03EEB6F0100EF76EC9
:10383000B80EF66E18EC04F00D0EEE6E0A0EEE6E7B
:10384000EE6A06018F6B03011A6B000103EE60F054
:1038500003011A51EB500C6E2A0E0C5CD8A4010E19
:103860003C6E4F0E1A5D010ED8B0000E3C160001E2
:103870000CE003EE60F003011A51EB500C6E0601F0
:103880008F1B03011A2B0001E0D703EE60F0EE500E
:10389000FEE1ED52020E016E086E06018F514FECF3
:1038A00000F00D0EEE6E0A0EEE6EEF6A0001F2D021
:1038B0000601A46BB99BB99D000104EE0CF0240E27
:1038C000EE6E470EEE6EEF6A800E026E800E096E8F
:1038D000226A9BC621F00B0E066EB80E056E27EC11
:1038E00001F0D8A0E8EF22F02408F9E127EC01F07C
:1038F000D8A0E8EF22F003011C6F020E1A6F510EE0
:1039000003011A5D00011BE2800E026E800E096E3B
:10391000226A9BC621F043EC01F003011C6F04EE08
:103920000CF01A51E926000EEA221CC3EFFF2A0E02
:103930001C5D000104E003011A2B0001E0E3800E8E
:10394000026E800E096E226A9BC621F043EC01F0E4
:1039500003011C6F0D6A1A290C6ED8B40D2A0C5085
:103960000C0FE96E040E0D20EA6E1CC3EFFF800EF3
:10397000026E800E096E226A9BC621F043EC01F0B4
:103980001C6F0D6A020E1A250C6ED8B00D2A0C5051
:103990000C0FE96E040E0D20EA6E1CC3EFFF0D6ADA
:1039A000030E1A250C6ED8B00D2A0C500C0FE96EC0
:1039B000040E0D20EA6EEF6A04010D510C6E470EE5
:1039C0000C5C010ED8A4000E3C6E0F510C6E470E1D
:1039D0000C5C010ED8A4000E3C1610510C6E470E64
:1039E0000C5C010ED8A4000E3C1611510C6E410E59
:1039F0000C5C010ED8A4000E3C1600010EE003EE94
:103A000060F014EE0CF0FF0EE75204E0E6CFEEFF9C
:103A1000E82EFAD7EF6A0601B98B04010D510C6E3E
:103A2000470E0C5C010ED8A4000E3C6E0F510C6EBC
:103A3000560E0C5C010ED8A4000E3C1610510C6EF4
:103A4000540E0C5C010ED8A4000E3C1611510C6EE5
:103A5000470E0C5C010ED8A4000E3C1600010EE0CF
:103A600003EEB6F014EE0CF0FF0EE75204E0E6CFE2
:103A7000EEFFE82EFAD7EF6A0601B98D010E0601B6
:103A8000B9BD000E3C6E010EB9BB000E3C12000128
:103A900001E012D704EE0CF013EEB6F0550EE7522B
:103AA00004E0E6CFEEFFE82EFAD7EF6A0501A46B3B
:103AB000A36BA66BA56B03011B6B0001FCEC26F04E
:103AC00005EEADF0EECFF3FFEFCFF4FFF450F310BF
:103AD00006E103013A6B396B386B000121D005EE2A
:103AE000ADF004EC00F00501A36F1AC0A4F5A4C565
:103AF00012F0A3C511F0000E14EC03F003013A6FAD
:103B0000A4C512F0A3C511F0010E14EC03F0396F37
:103B1000A4C512F0A3C511F0020E14EC03F0386F27
:103B200003011B6B000102EC27F005EEADF0EECFB8
:103B3000F3FFEFCFF4FFF450F31002E0000E01D0DA
:103B4000010E3C6E000E030112B9010E3C12000181
:103B500007E0300E03013D6F3C6F3B6F000121D049
:103B600005EEADF004EC00F00501A56F1AC0A6F556
:103B7000A6C512F0A5C511F0000E14EC03F0030168
:103B80003D6FA6C512F0A5C511F0010E14EC03F0AF
:103B90003C6FA6C512F0A5C511F0020E14EC03F09F
:103BA0003B6F0601986B04EE0CF013EE60F0550EBF
:103BB000E75204E0E6CFEEFFE82EFAD7EF6A030102
:103BC0001B6B0001FDEC26F00501AD510C6E300EB3
:103BD0000C5C0001D8B499EF22F00601A46B03013C
:103BE0001B6B000102EC27F001EE7FF015EEADF04B
:103BF000020EE6CFEEFFE82EFCD73A0EEE6E15EE83
:103C0000ADF0030EF36E020E20EC04F03A0EEE6EF1
:103C100015EEADF0050EF36E020E20EC04F0EF6A27
:103C200003011B6B000100EC27F00501AD510301FE
:103C30000E6F4E0E0E5D000107E10301188301EEC9
:103C40008FF0EF6A000110D0530E03010E5D0001EA
:103C500009E10301189301EE8FF02D0EEE6EEF6A6D
:103C6000000102D00301168703011B6B000101EC68
:103C700027F001EE8FF0EE50FEE1ED5215EEADF0C3
:103C8000080EE6CFEEFFE82EFCD7EF6A0501AD5136
:103C90000301426F0501AE510301436F0501AF51AE
:103CA0000301446F0501B0510301456F266A0A0EF6
:103CB000256E2A6A44C329F00F0E2916000E2A1613
:103CC00026C01EF025C01DF02AC016F029C015F030
:103CD000DFEC03F0256E1AC026F02A6A45C329F0EE
:103CE0000F0E2916000E2A16295025262A502622A4
:103CF0004B51255C116E000E2658126EFEEC03F03F
:103D00000C6E12C00DF00D5204E1030E0C5C0001AC
:103D100025E3266A0A0E256E2A6A44C329F00F0E8F
:103D20002916000E2A1626C01EF025C01DF02AC036
:103D300016F029C015F0DFEC03F0256E1AC026F04E
:103D40002A6A45C329F00F0E2916000E2A1625509F
:103D5000292403014B6F000106EF1CF0266A0A0EAE
:103D6000256E2A6A44C329F00F0E2916000E2A1662
:103D700026C01EF025C01DF02AC016F029C015F07F
:103D8000DFEC03F0256E1AC026F02A6A45C329F03D
:103D90000F0E2916000E2A162550292403014B6FF9
:103DA0000501B1510C6E2E0E0C5C000102E0030106
:103DB00016870501B2510301466F0501B351030196
:103DC000476F0F0E42151C6F1C5176EC07F03A6AD4
:103DD000396A200E386E820E376EC7EC06F036C098
:103DE00027F635C026F634C025F633C024F60F0E6C
:103DF00043151C6F1C5168EC07F027C63AF026C625
:103E000039F025C638F024C637F0D3EC05F036C0BB
:103E100027F635C026F634C025F633C024F60F0E3B
:103E200044151C6F1C51640DF3CF23F3F4CF24F31E
:103E30000F0E45151C6F1C510A0DF3CF1CF31C51BE
:103E40002327000E24230F0E46151C6F1C51232719
:103E5000000E24233A6A396A160E386E880E376EC1
:103E600024C334F023C333F078EC07F061EC06F0A0
:103E700036C028F035C027F034C026F033C025F016
:103E800027C63AF026C639F025C638F024C637F0E2
:103E900028C036F027C035F026C034F025C033F0F6
:103EA000D3EC05F036C027F635C026F634C025F62B
:103EB00033C024F618510001E8B218D0366A356ACA
:103EC000800E346E7F0E336E27C63AF026C639F068
:103ED00025C638F024C637F0C7EC06F036C027F602
:103EE00035C026F634C025F633C024F603011B6B1B
:103EF0000001FEEC26F00501AD5103010F6F450EE8
:103F00000F5D000107E10301189501EE9FF0EF6AD4
:103F1000000110D0570E03010F5D000109E10301FC
:103F2000188501EE9FF02D0EEE6EEF6A000102D0B3
:103F30000301168703011B6B0001FFEC26F001EE65
:103F40009FF0EE50FEE1ED5215EEADF0090EE6CF1A
:103F5000EEFFE82EFCD7EF6A0501AD510C6E0F0E97
:103F60000C140301486F266A48C325F026500A0D39
:103F7000F3CF26F025500A0DF3CF25F0F450262676
:103F80000501AE510C6E2A6A0CC029F00F0E2916DD
:103F9000000E2A16255029240301486F266A48C3BB
:103FA00025F026500A0DF3CF26F025500A0DF3CF49
:103FB00025F0F45026260501AF510C6E2A6A0CC07C
:103FC00029F00F0E2916000E2A1625502924030168
:103FD000486F0501B0510C6E0F0E0C140301496FB0
:103FE000266A49C325F026500A0DF3CF26F0255046
:103FF0000A0DF3CF25F0F45026260501B1510C6EC1
:104000002A6A0CC029F00F0E2916000E2A16255018
:1040100029240301496F4C51495D116E126AD8A0E1
:104020001206FEEC03F00C6E12C00DF00D5204E10E
:10403000030E0C5C000105E349C34CF3000106EFDD
:104040001CF049C34CF30501B3510C6E0F0E0C1458
:1040500003014A6F485176EC07F036C028F035C0AE
:1040600027F034C026F033C025F0495176EC07F034
:1040700036C02CF035C02BF034C02AF033C029F004
:10408000366A356A200E346E820E336E2CC03AF0DA
:104090002BC039F02AC038F029C037F0C7EC06F041
:1040A00036C02CF035C02BF034C02AF033C029F0D4
:1040B0004A5176EC07F02CC03AF02BC039F02AC0F8
:1040C00038F029C037F0D3EC05F036C02CF035C0FD
:1040D0002BF034C02AF033C029F03A6A396A160E40
:1040E000386E880E376E2CC036F02BC035F02AC0E3
:1040F00034F029C033F061EC06F036C02CF035C046
:104100002BF034C02AF033C029F028C03AF027C081
:1041100039F026C038F025C037F02CC036F02BC05F
:1041200035F02AC034F029C033F0D3EC05F036C0A6
:104130002BF635C02AF634C029F633C028F6266A95
:104140004AC325F026500A0DF3CF26F025500A0D5C
:10415000F3CF25F0F45026260501B4510C6E2A6ADF
:104160000CC029F00F0E2916000E2A1625502924FE
:1041700003014A6F18510001E8A418D0366A356A65
:10418000800E346E7F0E336E2BC63AF02AC639F09D
:1041900029C638F028C637F0C7EC06F036C02BF633
:1041A00035C02AF634C029F633C028F603011B6B4C
:1041B0000001FCEC26F005EEA7F015EEADF0320E96
:1041C000E75204E0E6CFEEFFE82EFAD7EF6A05EEFD
:1041D000A7F004EC00F00601996F030112510001F1
:1041E000E8BC1BD003011B6B0001FAEC26F001EECA
:1041F000AFF015EEADF0320EE75204E0E6CFEEFF81
:10420000E82EFAD7EF6A01EEAFF004EC00F00601F9
:10421000936F1AC094F600013FD0270E0601945DFB
:10422000000118E305E1100E0601935D000112E3A1
:1042300030C312F003012F51116EFE0DF3CF2FF397
:10424000F4CF30F31250FE0DF35030271150FF0D14
:10425000F350302703012F510601932703013051FA
:1042600006019423010E945D000106E308E12D0E82
:104270000601935D000103E20301306B2F6B000127
:1042800001EEAFF0020E016E086A94C61AF093C6F2
:1042900019F069EC00F0EF6A03014D510601935DDE
:1042A000116E03014E5106019459126EFEEC03F09B
:1042B0000C6E12C00DF0070E0D5C00010BE303E164
:1042C000D10E0C5C07E394C64EF393C64DF3000188
:1042D00006EF1CF094C64EF393C64DF3266A39C31D
:1042E00025F00F0E2516000E26162A6A0A0E296ED4
:1042F0002E6A38C32DF00F0E2D16000E2E162AC072
:104300001EF029C01DF02EC016F02DC015F0DFECF8
:1043100003F0296E1AC02AF0255029240301396FB1
:10432000140E395D000105E26C0E0301392700010E
:1043300003D0300E030139270001266A3BC325F064
:104340000F0E2516000E26162A6A0A0E296E2E6AF0
:104350003AC32DF00F0E2D16000E2E162AC01EF099
:1043600029C01DF02EC016F02DC015F0DFEC03F0B3
:10437000296E1AC02AF02550292403013B6F200E14
:104380003B27266A3CC325F00F0E2516000E261685
:104390002A6A0A0E296E2E6A3DC32DF00F0E2D16C5
:1043A000000E2E162AC01EF029C01DF02EC016F0D9
:1043B0002DC015F0DFEC03F0296E1AC02AF025504D
:1043C00029243D6F1C0E3D27200E4227200E432737
:1043D00018510001E8A203D0200E03014527640E06
:1043E0000301485D000ED8B0010E3C6E0A0E485D18
:1043F000010ED8B0000E3C12000103E0200E0301B4
:104400004627030118510001E8A403D0200E030140
:104410004727640E0301485D00010FE36E0E0301A0
:10442000485D000105E2080E03014827000103D0A2
:10443000480E0301485F00010DD00A0E0301485DDC
:10444000000105E31C0E03014827000103D0760E8E
:10445000030148270A0E0301495D000105E2580ED9
:1044600003014927000103D01C0E03014927000165
:104470001EC60CF01FC60DF00DC01DF60CC01CF6BC
:1044800020C60CF021C60DF00DC01FF60CC01EF6A4
:1044900022C60CF023C60DF00DC021F60CC020F68C
:1044A00094C623F693C622F622C60CF023C60DF05E
:1044B00020C60EF021C60FF00E500C5C0F500D58A8
:1044C00002E3000E01D0010E3C6E20C60CF021C6A6
:1044D0000DF01EC60EF01FC60FF00E500C5C0F50F4
:1044E0000D5802E3000E01D0010E3C161EC60CF062
:1044F0001FC60DF01CC60EF01DC60FF00E500C5C52
:104500000F500D5802E3000E01D0010E3C1610E0D2
:104510000301439B050E0601945D000108E305E1DC
:10452000DD0E0601935D000102E303011783000124
:104530004ED00601A42B0A0EA45D000141E3170E24
:104540000601616F000199EC25F000EEE8F00D0E18
:10455000EE6E100EF76EDE0EF66E18EC04F00D0E19
:10456000EE6EEE6A030114510001E8AA05D00301C2
:104570001B6B0001AEEC28F000EEE8F010EE4FF0FF
:10458000060EE6CFEEFFE82EFCD713EE60F0550ED8
:10459000E75204E0E6CFEEFFE82EFAD7EF6A030118
:1045A0001235000106E3BBEC26F054EC65F0E2ECBA
:1045B00026F00601A46BD60E166ED80ED8EC02F0CB
:1045C00000012CC661F699EC25F05CEF1CF012009E
:1045D00082949494640ED7EC02F09484030E166EC9
:1045E000E80ED8EC02F05CEF1CF01C0E03014A2729
:1045F00042C358F043C359F044C35AF045C35BF07B
:1046000046C35CF047C35DF05E6A48C30CF449C31F
:104610000DF44AC30EF439C30FF43BC310F43DC389
:1046200011F450C312F44FC313F4100E0601932576
:1046300003012D6F270E0601942103012E6F2EC357
:1046400012F02DC311F0200E166E590E156E4CECA3
:1046500003F0256E12C026F0210E25240C6E0CC02E
:1046600014F42EC312F02DC311F0200E166E590E45
:10467000156E4CEC03F01AC02EF319C02DF32EC3A7
:1046800012F02DC311F0166A5B0E156E4CEC03F0A0
:10469000256E12C026F0210E25240C6E0CC015F4D8
:1046A0002EC312F02DC311F0166A5B0E156E4CEC82
:1046B00003F01AC026F019C025F0210E25240C6E37
:1046C0000CC016F47D0E0401176F0D0E186F060155
:1046D000986BB9510001E8B602D04DEC56F0E2EC0F
:1046E00026F0D3EF28F082949494640ED7EC02F075
:1046F00094840601982B060E985D000121E300EEDC
:10470000E8F00D0EEE6E100EF76EF60EF66E18EC6B
:1047100004F00D0EEE6EEF6A0601986B0301145162
:104720000001E8AA05D003011B6B0001AEEC28F0E4
:1047300003011235000104E3BBEC26F054EC65F0F4
:1047400006EF1CF0BBEC26F0030114891487149DBE
:104750000601915176EC07F03A6A396A400E386EDC
:104760007F0E376EC7EC06F015EC07F08C6F34C087
:104770008DF6010E166EF40ED8EC02F00001939A3D
:104780008A9AB9D9BCEC26F0350E06015F6F00019C
:104790006ED903011A6B060E03011A5D00010EE2C9
:1047A00000EE4FF003011A51EB500C6E200E0C5C22
:1047B000000104E003011A2B0001EDE305EEADF06A
:1047C000110EF76E160EF66E18EC04F010EE4FF0A8
:1047D00003011A510001E6CFEEFFE82EFBD72F0EA2
:1047E000EE6E410EEE6E4D0EEE6EEE6A03011A6B2A
:1047F000000105EEADF003011A51EB500C6E0C52A6
:1048000000010DE005EEADF003011A51EB50060179
:10481000606F0001F1D803011A2B0001E9D70601EE
:104820008D51050DF3CF16F08C51050DF3CF15F01A
:10483000F4501626D9EC02F0030114510001E8A649
:104840002CD004EE0CF013EE60F0550EE75204E0AD
:10485000E6CFEEFFE82EFAD7EF6AE7EC4CF0010E58
:10486000166EF40ED8EC02F003011A6B000105EE8F
:10487000ADF003011A51EB500C6E0C5200010DE02B
:1048800005EEADF003011A51EB500601606F000117
:10489000B3D803011A2B0001E9D703011731000136
:1048A00033E3030114510001E8AA2BD0010E166E68
:1048B000F40ED8EC02F0E2EC26F004EE0CF0210E3F
:1048C000EE6E11EE8FF0070EE6CFEEFFE82EFCD76E
:1048D0000EC3EEFF4FC3EEFF11EE9FF0080EE6CFC2
:1048E000EEFFE82EFCD70FC3EEFF50C3EEFF0D0E18
:1048F000EE6EEF6A0301119D00014CEC27F0D9EC3C
:1049000028F063EC63F077D00601B981030113311D
:10491000000132E361EC52F0010E166EF40ED8EC99
:1049200002F005EEADF0200EEE6E550EEE6E10EEBE
:10493000A6F00A0EE75204E0E6CFEEFFE82EFAD723
:10494000560EEE6EEE6A03011A6B000105EEADF035
:1049500003011A51EB500C6E0C5200010DE005EEF4
:10496000ADF003011A51EB500601606F000144D80D
:1049700003011A2B0001E9D7030113510001E8A23A
:1049800039D01FEC51F09B510C6E2D0E0C5C02E1E6
:104990004E0E9B6F030E166EE80ED8EC02F005EE7D
:1049A000ADF0200EEE6E540EEE6E10EE9BF00A0E81
:1049B000E75204E0E6CFEEFFE82EFAD7430EEE6EA4
:1049C000EE6A03011A6B000105EEADF003011A5106
:1049D000EB500C6E0C5200010DE005EEADF0030142
:1049E0001A51EB500601606F000106D803011A2B23
:1049F0000001E9D7C7D81200200E0601605D000152
:104A00000FE106018D51050DF3CF16F08C51050D08
:104A1000F3CF15F0F4501626D9EC02F00001120085
:104A2000410E0601605D000112E2266A4E0E06018B
:104A30006025256ED8B0262A2E0E255C646FAA6AE2
:104A400064C6A9FF69EC02F05F6F000110D0266A0E
:104A50005E0E06016025256ED8B0262A410E255C23
:104A6000646FAA6A64C6A9FF69EC02F05F6F020E68
:104A700006015F5D000126E37BD806015F3100017E
:104A80000FE306018D51030DF3CF16F08C51030D8A
:104A9000F3CF15F0F4501626D9EC02F0000106D041
:104AA0008DC616F006018C51D8EC02F0000197D8A3
:104AB0008DC616F006018C51D8EC02F0D8905F3309
:104AC0000001D5D7D89006018C35156E8D35166E40
:104AD000D9EC02F000011200050E0501E06F110E85
:104AE000E16F200EE26F010EE36FE46B8A0EE56F5B
:104AF000000148EF50F0050E0501E06F110EE16F67
:104B0000200EE26F010EE36FE46B880EE56F00018B
:104B100048EF50F0050E0501E06F110EE16F200E19
:104B2000E26F010EE36FE46B890EE56F000148EF61
:104B300050F00601619F050E0501E06F110EE16F57
:104B4000220EE26F010EE36FE46F61C6E5F500012E
:104B500048EF50F0050E0501E06F110EE16FE26BBA
:104B6000010EE36FE46B62C6E5F5000148EF50F01B
:104B7000020E0501E06F340EE16F070EE26F0001D7
:104B800048EF50F0020E0501E06F340EE16F010EA8
:104B9000E26F000148EF50F0020E0501E06F340EA5
:104BA000E16F050EE26F000148EF50F0060E0501BF
:104BB000E06F310EE16F010EE26F300EE36FE46BD8
:104BC000E56BE66B000148EF50F0020E0501E06F67
:104BD000340EE16F030EE26F000148EF50F0020E59
:104BE0000501E06F340EE16F080EE26F000148EF3F
:104BF00050F0020E0501E06F340EE16F060EE26F19
:104C0000000148EF50F0020E0501E06F340EE16F35
:104C1000020EE26F000148EF50F0060E0501E06F52
:104C2000110EE16F200EE26F020EE36F0D0EE46FC6
:104C3000030EE56FE80EE66F000148EF50F0060E38
:104C40000501E06F110EE16F200EE26F020EE36FBF
:104C50000D0EE46FE56BE66B000148EF50F038C6CF
:104C600028F037C627F036C626F035C625F050C6E0
:104C700034F04FC633F070EC07F036C02CF035C07E
:104C80002BF034C02AF033C029F0660E366E356E34
:104C9000060E346E7F0E336E2CC03AF02BC039F006
:104CA0002AC038F029C037F0C7EC06F036C02CF027
:104CB00035C02BF034C02AF033C029F02952D8B4C3
:104CC0003F84D8A4290628C03AF027C039F026C06E
:104CD00038F025C037F02CC036F02BC035F02AC094
:104CE00034F029C033F0C7EC06F015EC07F00601EC
:104CF000696F34C06AF66AC65EF669C65DF6070E6D
:104D00000501E06F110EE16F200EE26F030EE36FFD
:104D10000A0EE46FE56B5EC6E6F55DC6E7F50001D9
:104D200048EF50F0070E0501E06F110EE16F200E05
:104D3000E26F030EE36F0A0EE46FE56BE66BE76B61
:104D4000000148EF50F0080E0501E06F130EE16F0F
:104D5000040EE26F150EE36F210EE46F200EE56F77
:104D6000080EE66F0B0EE76FE86B140ED7EC02F03F
:104D7000000168EF50F0B0DE100E0F01406FAA6A1C
:104D80003E0EA96E69EC02F00601476F69EC02F075
:104D9000486F69EC02F0496F69EC02F04A6FE80E67
:104DA00047253F6F030E4821406F000E4921416F98
:104DB000000E4A21426F000113EC5BF050DF640EDD
:104DC000D7EF02F0AA6A310EA96E69EC02F0060173
:104DD0003F6F69EC02F0406F69EC02F0416F69ECE3
:104DE00002F0426F000187DE13EC5BF09BDF640E84
:104DF000D7EF02F033D832D831D830D82FD82ED8C8
:104E00002DD82CD82BD803011A6B000104EE0CF01E
:104E100003011B51E926000EEA22EF500C6E2C0E06
:104E20000C5C000112E004EE0CF003011B51E926BA
:104E3000000EEA22EFCF0CF005EEADF01A510CC0D7
:104E4000EBFF1A2B1B2B0001E0D7F36A05EEADF048
:104E500003011A51F3CFEBFF0001120004EE0CF036
:104E600003011B51E926000EEA22EF500C6E2C0EB6
:104E70000C5CD8A4010E3C6E500E1B5D010ED8B028
:104E8000000E3C16000104E003011B2B0001E6D7D5
:104E900003011B2B000112000301179D00015BECB5
:104EA00046F0BCEC29F000EEE8F010EE58F0080EE9
:104EB000E75204E0E6CFEEFFE82EFAD7EF6A610E84
:104EC0004E6E030111510001E8A801D04E90BCECD8
:104ED00044F000EEE8F010EE4FF0080EE75204E068
:104EE000E6CFEEFFE82EFAD7EF6ABCEC44F04EB006
:104EF0003AD0030111510001E8A411D0600E4E6EAA
:104F000000EEE8F010EE61F0080EE75204E0E6CFA4
:104F1000EEFFE82EFAD7EF6ABCEC44F001D013D0D4
:104F2000030111510001E8A60ED000EEE8F010EEEA
:104F30006AF0080EE75204E0E6CFEEFFE82EFAD75B
:104F4000EF6ABCEC44F0610E4E6E00EEE8F010EE3D
:104F500073F0080EE75204E0E6CFEEFFE82EFAD732
:104F6000EF6ABCEC44F0030E4B6E59D9F00E4B6E59
:104F700056D10301376B366B2C6B780E2B6F630E9B
:104F80000301365D0001D8B0E8D02CC3AAFF2BC3C3
:104F9000A9FF69EC02F04B6E0D0E4B5CD8B4DDD06E
:104FA0005C0E4B5CD8A4D1D003012B2B000E2C231C
:104FB0001B6B2CC3AAFF2BC3A9FF69EC02F04B6E3D
:104FC0004B9A550E4B5C00010EE100EEE8F010EE3E
:104FD000A6F00A0EE75204E0E6CFEEFFE82EFAD77D
:104FE000EF6ABCD8B1D0560E4B5C0EE100EEE8F093
:104FF00010EEB1F00A0EE75204E0E6CFEEFFE82E25
:10500000FAD7EF6AABD8A0D0570E4B5C0EE100EE9A
:10501000E8F010EEBCF00A0EE75204E0E6CFEEFF37
:10502000E82EFAD7EF6A9AD88FD0580E4B5C0EE173
:1050300000EEE8F010EEC7F00A0EE75204E0E6CF0B
:10504000EEFFE82EFAD7EF6A89D87ED05A0E4B5C75
:1050500016E100EEE8F0020E016E086A1A6A0E0E02
:10506000196E69EC00F02E0EEE6E020E016E010E4E
:10507000086E8C0E67EC00F0EE6A70D865D0540EA6
:105080004B5C0EE100EEE8F010EE9BF00A0EE752EA
:1050900004E0E6CFEEFFE82EFAD7EF6A5FD854D0EF
:1050A000530E4B5C0EE100EEE8F010EE90F00A0EAD
:1050B000E75204E0E6CFEEFFE82EFAD7EF6A4ED8CB
:1050C00043D0490E4B5C0EE100EEE8F010EE8AF0A2
:1050D000050EE75204E0E6CFEEFFE82EFAD7EF6ABE
:1050E0003DD832D0500E4B5C0EE100EEE8F010EEF1
:1050F000D2F00A0EE75204E0E6CFEEFFE82EFAD730
:10510000EF6A2CD821D0460E4B5C0EE100EEE8F0A1
:1051100010EEDDF00A0EE75204E0E6CFEEFFE82ED7
:10512000FAD7EF6A1BD810D0420E4B5C0DE100EEAF
:10513000E8F010EE85F0040EE75204E0E6CFEEFF53
:10514000E82EFAD7EF6A0AD801D069D803012B2BD1
:10515000000E2C23362B000112D7120000EEE8F0CF
:1051600003011B51E926000EEA22EF500C6E000EDF
:105170000C52D8A4010E3C6E640E1B5D010ED8B01B
:10518000000E3C1600010EE000EEE8F003011B519A
:10519000E926000EEA22EF504B6E1B2B362B000146
:1051A0003ED8DCD71200FCEC46F076DE600E4B6E8B
:1051B00036D803011B6B000104EE0CF003011B51F8
:1051C000E926000EEA22EF500C6E0D0E0C5CD8A4FE
:1051D000010E3C6EC70E1B5D010ED8B0000E3C16D2
:1051E00000010FE004EE0CF003011B51E926000E54
:1051F000EA22EF504B6E000112D803011B2B000175
:10520000DAD7000E030111BD010E3C6E010E55539D
:10521000D8A4000E3C16000101E0ABDEC0D00301B3
:1052200011350001D8B092D0F29A486A080E485C55
:105230001FE20301188D4BA0189D00014CD84BB004
:1052400006D0476A03011689000114D80DD0030166
:105250001699472A00010ED8050E475C05E1476AFA
:1052600003011689000106D8D8904B32482ADEE3A4
:10527000F28A1200E86A030116BB010F16B9010A8F
:10528000D8B4169BD8A4168B030116510001E8BAB6
:1052900003D058C352FF02D059C352FF9EB219D057
:1052A000F76A57C3F6FF160EF626BA0EF722A66A5D
:1052B000A68E0800F5CF40FF7EA0FED70301572B36
:1052C0007E90170E575D000102E10301576B00014C
:1052D000E5D79E921200030118510001E8AC02D0FC
:1052E000010E4C1A0301188D4CA0189DD8904D3218
:1052F0004C3218510001E8BC01D01200080E4C1AC3
:10530000840E4D1A120003011135000101E3120051
:1053100003011A6B03011A511C5D000116E303011E
:1053200016890001A7DF486A060E485C06E2030101
:10533000169900019FDF482AF7E30301168900014F
:1053400099DF03011A2B0001E5E31200016A020E46
:10535000086E4B504FEC00F0200ED6EC01F003012C
:10536000532B100E535D000105E10301536B0D0E2D
:10537000D6EC01F00001120003011135000104E236
:10538000E2EC26F0B8EC25F05BEC46F04D684C689A
:1053900051C3BBFFBC6A9E9210C31CF3B4D7030178
:1053A0001135000104E30D0ED6EC01F011D0FF0E13
:1053B0004D180301526FFF0E4C184B6E00012FDF8A
:1053C00052C34BF02CDF54C31CF39DDF9EA2FED7CB
:1053D000C2EF25F00D0ED6EC01F0110EF76E200E87
:1053E000F66ECEEC01F0016A086A1A6A0E0E196EAA
:1053F00069EC00F02E0ED6EC01F0010E086E8C0E5A
:1054000067EC00F0110EF76E340EF66ECEEC01F084
:105410000D0ED6EC01F0130E096E880E026EAEEC86
:1054200001F0D8A038EF16F04A6E110EF76E3E0E5E
:10543000F66ECEEC01F00D0ED6EC01F0630ED6EC5C
:1054400001F06D0ED6EC01F0640ED6EC01F03E0ECC
:10545000D6EC01F004EE0CF00D0EEE6EEF6A03D800
:1054600082D8FBD8FCD73A0E096E980E026EAEECCD
:1054700001F0F9E34A6E030112510001E8A203D0E2
:105480004A50D6EC01F00D0E4A5C010ED8A4000E75
:105490003C6E0A0E4A5C010ED8A4000E3C1201E0DC
:1054A0001200010E496E4AC00CF43A0E096E980EB5
:1054B000026EAEEC01F0D8A045D04A6E0301125145
:1054C0000001E8A203D04A50D6EC01F0080E4A5C75
:1054D00004E1495201E04906E8D70D0E4A5C010E8D
:1054E000D8A4000E3C6E0A0E4A5C010ED8A4000E31
:1054F0003C124928010ED8A4000E3C1219E004EE1B
:105500000CF04950E926000EEA220D0EEF6E492AF2
:1055100004EE0CF04950E926000EEA22EF6A096A0F
:10552000960E026EAEEC01F001E34A6E120008D056
:1055300004EE0CF04950E926000EEA224AC0EFFFC3
:10554000492AB3D704EE0CF04950E926000EEA22AE
:105550000D0EEF6E492A04EE0CF04950E926000EBC
:10556000EA22EF6A120003011B6B000104EE0CF04B
:1055700003011B51E926000EEA22EF500C6E200EAB
:105580000C5CD8A4010E3C6E04EE0CF01B51E92615
:10559000000EEA22EF500C6E0D0E0C5CD8A4010E2A
:1055A0003C16FD0E1B5D010ED8B0000E3C1600012E
:1055B000D8B449D004EE0CF003011B51E926000ECB
:1055C000EA22EF500C6E610E0C5C000ED8B0010E9A
:1055D0003C6E04EE0CF01B51E926000EEA22EF505F
:1055E0000C6E7B0E0C5C000102E3000E01D0010E7C
:1055F0003C1614E004EE0CF003011B51E926000EEA
:10560000EA22EF500E6EDF0E0E140C6E04EE0CF05C
:105610001B51E926000EEA220CC0EFFF000104EE48
:105620000CF003011B51E926000EEA22EFCF0CF02B
:1056300000EEE8F01B51E926000EEA220CC0EFFF55
:105640001B2B000192D700EEE8F003011B51E92665
:10565000000EEA22EF6A00011200E8510C6E0A0EF9
:105660000C5C010ED8A4000E3C6EE8510C6E0D0EC1
:105670000C5C010ED8A4000E3C12E8510C6E010E19
:105680000C52D8A4000E3C1203E074CF1CF312009D
:10569000110EF76E520EF66E00EEE8F029EC04F0F3
:1056A00004E1CBEF30F077EF2EF0110EF76E580ECD
:1056B000F66E00EEE8F029EC04F009E0110EF76E4A
:1056C0005C0EF66E00EEE8F029EC04F004E196EFD3
:1056D00034F077EF2EF0110EF76E640EF66E00EEDA
:1056E000E8F029EC04F009E0110EF76E680EF66E92
:1056F00000EEE8F029EC04F004E13AEF34F077EF43
:105700002EF0110EF76E6E0EF66E00EEE8F029EC3C
:1057100004F009E0110EF76E720EF66E00EEE8F07E
:1057200029EC04F004E153EF34F077EF2EF0110E82
:10573000F76E7A0EF66E00EEE8F029EC04F009E060
:10574000110EF76E7E0EF66E00EEE8F029EC04F016
:1057500004E1E0EF34F077EF2EF0110EF76E860ED5
:10576000F66E00EEE8F029EC04F009E0110EF76E99
:105770008C0EF66E00EEE8F029EC04F004E11FEF69
:1057800036F077EF2EF0110EF76E940EF66E00EEF7
:10579000E8F029EC04F004E111EF41F077EF2EF08E
:1057A000110EF76E9A0EF66E00EEE8F029EC04F09A
:1057B00004E16DEF30F077EF2EF0110EF76EA20ED0
:1057C000F66E00EEE8F029EC04F004E124EF33F08B
:1057D00077EF2EF0110EF76EA80EF66E00EEE8F0E1
:1057E00029EC04F004E1C7EF32F077EF2EF0110E50
:1057F000F76EAE0EF66E00EEE8F029EC04F004E170
:10580000E1EF40F077EF2EF0110EF76EB60EF66E68
:1058100000EEE8F029EC04F009E0110EF76EBC0E82
:10582000F66E00EEE8F029EC04F004E193EF31F0BD
:1058300077EF2EF0110EF76EC40EF66E00EEE8F064
:1058400029EC04F009E0110EF76EC80EF66E00EEBA
:10585000E8F029EC04F003E1FAEF40F048D2110E31
:10586000F76ED00EF66E00EEE8F029EC04F009E0D9
:10587000110EF76ED40EF66E00EEE8F029EC04F08F
:1058800003E1A8EF3FF033D2110EF76EDC0EF66E97
:1058900000EEE8F029EC04F002E144D228D2110E27
:1058A000F76EE20EF66E00EEE8F029EC04F003E18C
:1058B000D4EF31F01CD2110EF76EE80EF66E00EE4A
:1058C000E8F029EC04F003E1EDEF31F010D2110E15
:1058D000F76EF00EF66E00EEE8F029EC04F009E049
:1058E000110EF76EF60EF66E00EEE8F029EC04F0FD
:1058F00003E16AEF32F0FBD1120EF76E000EF66E86
:1059000000EEE8F029EC04F009E0120EF76E040E48
:10591000F66E00EEE8F029EC04F003E193EF3BF0C3
:10592000E6D1120EF76E0E0EF66E00EEE8F029ECE0
:1059300004F003E163EF3CF0DAD1120EF76E140EBF
:10594000F66E00EEE8F029EC04F009E0120EF76EB6
:10595000180EF66E00EEE8F029EC04F003E151EFCA
:105960003EF0C5D1120EF76E220EF66E00EEE8F094
:1059700029EC04F009E0120EF76E280EF66E00EE28
:10598000E8F029EC04F003E180EF3EF0B0D1120E14
:10599000F76E2E0EF66E00EEE8F029EC04F003E14F
:1059A000AEEF3EF0A4D1120EF76E340EF66E00EE9E
:1059B000E8F029EC04F003E1D0EF3EF098D1120EAC
:1059C000F76E3A0EF66E00EEE8F029EC04F003E113
:1059D00051EF32F08CD1120EF76E400EF66E00EEE3
:1059E000E8F029EC04F003E106EF32F080D1120E6A
:1059F000F76E460EF66E00EEE8F029EC04F003E1D7
:105A00001FEF32F074D1120EF76E4E0EF66E00EEEE
:105A1000E8F029EC04F003E138EF32F068D1120E1F
:105A2000F76E560EF66E00EEE8F029EC04F009E091
:105A3000120EF76E5C0EF66E00EEE8F029EC04F044
:105A400003E136EF3FF053D1120EF76E620EF66EA1
:105A500000EEE8F029EC04F009E0120EF76E680E93
:105A6000F66E00EEE8F029EC04F003E103EF3FF0FE
:105A70003ED1110EF76E520EF66E00EEE8F029ECF4
:105A800004F003E1CBEF30F032D1120EF76E6E0E60
:105A9000F66E00EEE8F029EC04F009E0120EF76E65
:105AA000740EF66E00EEE8F029EC04F003E1E4EF8A
:105AB00030F01DD1120EF76E7E0EF66E00EEE8F09D
:105AC00029EC04F003E1FDEF30F011D1120EF76E76
:105AD000840EF66E00EEE8F029EC04F003E116EF18
