:020000040000FA
:100000000400040035EF13F0086A800E3B6E38D010
:10001000196A1A6A0A9A28EC02F0D8A01200D30FC3
:10002000D8B40A8A2D0FC60F03E20A0FF4E305D0F5
:10003000F30FF1E2060FEFE30A0F156E040E166ED2
:10004000D89019361A36162EFBD7155019120806F5
:100050000EE0FED9D8A01200C60F03E20A0F07E394
:10006000ECD7F30F04E2060F02E30A0FE6D70AAA61
:1000700004D0191E1A1E194A1A2A1950D8801200C3
:10008000196A1A6A1B6A1C6A0A9AE2D9D8A0120075
:10009000D30FD8B40A8A2D0FC60FF7E20A0FF5E383
:1000A000156E146A136A126A0A0E116EF2EC03F0EE
:1000B00015501124196E12501A6E000ED8B0010E90
:1000C0001A2613501B6E000ED8B0010E1B261450BA
:1000D0001C6E000ED8B0010E1C26080607E0B8D929
:1000E000D8A01200C60F02E20A0FDAE20AAA0BD069
:1000F000191E1A1E1B1E1C1E192AD8B41A2AD8B47F
:100100001B2AD8B41C2A1950D8801200086A196E0C
:100110001A6A00960850D8B40086040E076E1A3882
:1001200005D81A5003D8193801D819500F0BF60FFB
:10013000D8B0070F0A0F23D031D803D0086A196E40
:100140001A6A00960850D8B40086050E076E270E6E
:10015000166E100E0CD8030E166EE80E08D8166A2E
:10016000640E05D8166A0A0E02D8195008D0156E0A
:100170001A50126E1950116EA0EC03F01150116E4E
:10018000074E0096085002E0075C07E21150D8A421
:10019000009600B602D0300F4DD112001AAE1200F8
:1001A00019501A10D8B41200191E1A1E194A1A2A08
:1001B0002D0E40D13D6E26AE02D02D0E3BD9283EED
:1001C00004D0273E02D0264A262A336A346A356A8A
:1001D000366A268E6A0E2526D89026322732283295
:1001E0003632353234323332253EF6D72850255C4C
:1001F0002826255E2750265C2726265E086A38D8E2
:100200002E0E18D93E6AD8903334286E3434276EB7
:100210003534266E3634256E3E36D890283627364D
:10022000263625363E36335028263450D8B0343C56
:1002300027263550D8B0353C26263650D8B0363C27
:100240002526D8B03E3ED890283627362636253685
:100250003E363E50300FEED828C033F027C034F081
:1002600026C035F025C036F03D2ECCD7D8901200F0
:100270000096085003E100860A0E086E28C014F0AC
:1002800027C013F026C012F025C011F0076A1C6ABF
:100290001B6A1A6A0A0E196E72EC03F0072A0750DD
:1002A000085CF5E11950D8A4009600A602D0082CED
:1002B00003D01950300FBED8082EE0D7120005C069
:1002C00011F006C012F0010E156E166AEA6802C03F
:1002D000E9FF040029D815E3152EFBD7FF0E1626DB
:1002E000F8E21126D8A01226D8A01200200E156E12
:1002F000030E166EEED7EA6802C0E9FF040014D8B8
:10030000FDE254D81F6A080E166E51D80DD8D8B029
:100310001F3E1532162EF9D722AA1F6A22BA159E41
:1003200046D8D88015501200120EE9260950EF1257
:1003300002C0E9FFEF1422BC0918FF0F12001D6E66
:10034000EA68E2680250E96E120FE16E800E0A164A
:10035000080E1E6ED890D8B00A3E11D81D321E2E3F
:10036000FAD7040022BA0A300AD800D000D000D050
:10037000D88005D80650166E05506ED9120022AEF0
:100380000BD0EF50091022AC0918EF6EE75009109E
:10039000D8A00918E76E0BD0EF500910D8A00918A3
:1003A00022BC0918EF6E091CE71601D00A8C2250F6
:1003B0001F0B000F126E2150110FD8B0122A0AAC79
:1003C00058D10A9C116E020E5EEC04F052D171B24B
:1003D0007198718802C011F009C012F0156A166A8E
:1003E000040000D00400A4BA15D0E868152616222F
:1003F00011221222D8A012001548163CF1D7D00EB7
:10040000156E030E166EEED771B2719871880400E6
:10041000A4AAFED77450D8801200A66AA68E09003E
:10042000F55002E002D8FBD712000400A4A8FED7C2
:10043000736E120001BA83D701A202D001B038D086
:1004400001A205D001B003D001B2EE6E1200EDD7CB
:100450003B50080ABCE03B50090AD6E03B50030A77
:10046000D8B42DD73B50050AD8B445D7D8803BBE69
:10047000EE501200008800A8009800BA03D0008A4D
:1004800035D829E20094080E166E40D81536162E7F
:10049000FCD700B407D000B801D04AD845D841D81D
:1004A00000B819D843D8D89015501CD0008800A89F
:1004B000009800BC05D0FE0B0A6E008CD89012D0BC
:1004C00000BE05D01D6E008E11D805E21D5012D859
:1004D00002E200A807D02CD827D8009C009E009AE2
:1004E000009424D81F80D8A01F90120017D80A505B
:1004F00000BA0109156E080E166E153617D801E2FE
:1005000017D812D80ED8162EF8D710D80DD800D07C
:100510000400D89081BCD88004D8120007D804D831
:1005200007D8819E939E06D0938E04D0938C02D0E0
:100530008A9C939C1200AA6AA96EA66AA680A850FB
:10054000A94AAA2A1200AA6AA86EA66AA684550E0B
:10055000A76EAA0EA76EA6820400A6B2FED7A69426
:10056000A94AAA2A1200E836E836FC0B0109C21291
:100570008009C216C050F80B0309C06E640E78D80B
:10058000C2820400C2B2FED7C4CF26F0C350256E8B
:100590001200080E1D6E1E6EEA6803C0E9FF0450CB
:1005A0000AB490D90AA490D9E26803C0E1FFEA68CE
:1005B00002C0E9FF0950E988E92AEC1202C0E9FF0C
:1005C000116A126A1D50D8B412000AB234D8EF5022
:1005D0000914FF0F113612360AA22DD81D2EF5D799
:1005E0001E500AB050D111501200080E1D6EEA685C
:1005F00003C0E9FF04500AB465D90AA465D9E268CA
:1006000003C0E1FFEA6802C0E9FF091CE988E92AA2
:10061000EC161D50D8B412000AB035D902C0E9FF5B
:1006200012321132EF500910D8A00918EF6E03D81A
:100630001D2EF6D712000450E71A040000D000D097
:1006400000D000D000D000D000D000D000D000D02A
:1006500000D0E71A1200166A156EFF0E1526162234
:1006600000D0D8A01200030E126EE60E02D8F5D705
:10067000126AFE0F116E040000D000D0E86A125A10
:10068000D8A01200110600D000D0F5D70009D8B4C8
:1006900012001F6E11C0E9FF12C0EAFF126A116A50
:1006A0001FBE07D0EE50116E1FA21200EF50126E47
:1006B000120004D8EF14D8A4112A1200010E1FB0A2
:1006C000E8441FB2E8441FB2E8441FB4E8381200FF
:1006D000010F1E6E0A0E156E166A32D81E2EFDD739
:1006E000195012002F6A306A316A326A210E176E71
:1006F00015D02F3630363136323619502F5C1A501D
:1007000030581B5031581C50325808E3326E195083
:100710002F5E1A50305A1B50315AD880113612367B
:1007200013361436172EE5D732C01CF031C01BF03B
:1007300030C01AF02F50196E1200126A166A156E28
:100740001A6A196A100EF36E123419361A361550D9
:10075000195C16501A5805E31550195E16501A5AAE
:10076000D88011361236F32EEFD7115012002050D8
:100770001A18800BF46E20AE05D01F1E201E1F2AF3
:10078000D8B4202A1AAE05D0191E1A1E192AD8B4B8
:100790001A2A156A116A126A166A1A5002E1195069
:1007A00018E0100EF36ED8901F3620361536163628
:1007B0001A50165C02E11950155C07E31950155EDA
:1007C000D8A016061A50165ED88011361236F32EAF
:1007D000EAD7F4AE05D0111E121E112AD8B4122A7F
:1007E0001150120014C032F013C031F012C030F0BA
:1007F00011C02FF031501902F3CF13F0F4CF14F0E1
:1008000030501A02F3501326F45014222F501B02BA
:10081000F3501326F450142232501902F3501426C8
:1008200031501A02F350142630501B02F350142694
:100830002F501C02F35014262F501902F3CF11F041
:10084000F4CF12F030501902F3501226F450132254
:10085000000E14222F501A02F3501226F4501322C5
:10086000000E1422120015501D02F3CF19F0F4CF20
:100870001AF016501D02F3501A2615501E02F3509E
:100880001A2619501200156A166A04D01232113253
:1008900015361636FF0FFAE216C012F01550116E1B
:1008A0001200116E12BE02D811501200111E121E3B
:1008B000114A122A1200D89012321132FF0FFBE2B5
:1008C00011501200EF1203D0FF0AEF1601D0FF0AF9
:1008D000E988E92AEC161200A66AA68E0900F550EE
:1008E00002E0EE6EFBD71200F34E02D0E652FCD7C8
:1008F000E6CFEEFFE82EFCD71200A66AA68EEE50D9
:100900000900F55C02E1F566FAD712003FC01FF05E
:100910003F8C0ED8D90E3A6E5B0E396E5E0E386E75
:100920007D0E376E56EC07F01FAC3F9C3650120020
:1009300034BE09D13352D8B406D13FC01DF03F8C2C
:100940007E0E335C1E6E7E0E336E3A6A396A386AEA
:100950007F0E376EF30E365C040ED8A0050E355CA4
:10096000350ED8A0360E345C02E3AAD903D0332A60
:10097000A7D91E0636C011F035C012F034C013F0EE
:1009800033C014F0710E3A6E5F0E396E550E386E2C
:10099000800E376E97D911C03AF012C039F013C0EB
:1009A00038F014C037F056EC07F0C60E3A6EF50E6C
:1009B000396E1F0E386E800E376E84D936C015F032
:1009C00035C016F034C017F033C018F011C036F03F
:1009D00012C035F013C034F014C033F08A0E3A6EF2
:1009E000120E396E790E386E7D0E376E56EC07F0AA
:1009F000F60E3A6E460E396E550E386E7E0E376E16
:100A000061D915C03AF016C039F017C038F018C0D7
:100A100037F0E6D936C015F035C016F034C017F0FF
:100A200033C018F01450336E376E1350346E386E76
:100A30001250356E396E1150366E3A6E56EC07F024
:100A400036C025F035C026F034C027F033C028F07A
:100A500015C03AF016C039F017C038F018C037F09A
:100A600056EC07F011C03AF012C039F013C038F05C
:100A700014C037F056EC07F025C03AF026C039F024
:100A800027C038F028C037F03766370619D911C0AB
:100A90003AF012C039F013C038F014C037F012D950
:100AA0001E5252E036C025F035C026F034C027F083
:100AB00033C028F01EC033F0000E33BEFF0E346E7C
:100AC000356E366E03EC08F036C011F035C012F00A
:100AD00034C013F033C014F0830E3A6E800E396EBA
:100AE000DE0E386E720E376EE1D925C03AF026C0A0
:100AF00039F027C038F028C037F0E4D836C025F0E8
:100B000035C026F034C027F033C028F011C036F0CD
:100B100012C035F013C034F014C033F03A6A800EBE
:100B2000396E310E386E7E0E376EC0D925C03AF060
:100B300026C039F027C038F028C037F0C3D81DBC14
:100B400003D03F9C01D03F8A3650120038503418F1
:100B5000416E41BE30D038BE17D03750335CD8A07C
:100B6000000CD8A4010C3850345CD8A0000CD8A4D8
:100B7000010C3950355CD8A0000CD8A4010C3A50B7
:100B8000365CD8A0000C010C3350375CD8A0000CA8
:100B9000D8A4010C3450385CD8A0000CD8A4010CA7
:100BA0003550395CD8A0000CD8A4010C36503A5C02
:100BB000D8A0000C010C34AE010C000C38503418D5
:100BC000416E41BE34D038BE19D03750335CD8A006
:100BD000000CD8A4010C3850345CD8A0000CD8A468
:100BE000010C3950355CD8A0000CD8A4010C3A5047
:100BF000365CD8A0000CD8A4010C000C3350375C34
:100C0000D8A0000CD8A4010C3450385CD8A0000C3B
:100C1000D8A4010C3550395CD8A0000CD8A4010C24
:100C200036503A5CD8A0000CD8A4010C000C34AEAD
:100C3000010C000C34503818416E41BE34D034BE23
:100C400019D03350375CD8A0000CD8A4010C345014
:100C5000385CD8A0000CD8A4010C3550395CD8A061
:100C6000000CD8A4010C36503A5CD8A0000CD8A4D3
:100C7000010C000C3750335CD8A0000CD8A4010C38
:100C80003850345CD8A0000CD8A4010C3950355C25
:100C9000D8A0000CD8A4010C3A50365CD8A0000CA7
:100CA000D8A4010C000C38AE010C000C3A6A396A69
:100CB0007E0E376E800E34AE000E386E03D844D1EF
:100CC000800E381A3750335C3E6E11E23E6C335062
:100CD00037C033F0376E345038C034F0386E35508A
:100CE00039C035F0396E36503AC036F03A6E1A0EC9
:100CF0003E6074D0375272E03D6A3450406E38180E
:100D0000426E348E388E080E3E5E08E33AC03DF0E7
:100D100039C03AF038C039F0386AF5D73E2607E0D6
:100D2000D890383239323A323D323E2EF9D742AE7F
:100D300033D03A50365E3950355A3850345A07E27B
:100D4000D880000E365635563456800E401A3D6C0B
:100D500004E03606000E355A345A040E3E6E3466F0
:100D60000DD035C034F036C035F03DC036F03D6AA8
:100D7000080E335E29E33E2EF2D726D034BE08D0CB
:100D8000D8903D36363635363436332EF7D71CD02C
:100D90003DAE22D03D6A0FD03A503626395035222A
:100DA0003850342206E33432353236323D32334A5B
:100DB0000DD03DAE11D0363E0FD0353E0DD0343E75
:100DC0000BD0D8803690EFD7336A02D03F82336899
:100DD000366A356A800E346E40AE349E365012004C
:100DE0003450316E3818426E375051E0335252E071
:100DF000335E7F0E03E2332603E24BD033264CE210
:100E000036C02FF035C030F0318E388E180E406E5F
:100E1000366A356A346A0BD03A502F5C39503058F4
:100E200011E3306E316A3A502F5E0BD004E2385035
:100E3000315CF2E007E33A502F5E3950305A3850B7
:100E4000315AD8803636353634362F36303631364C
:100E5000402EECD734BE07D033521BE0423233066B
:100E6000402A4236E3D707E23A502F5E3950305AD3
:100E70003850315A17E3363E15D0353E13D0343E44
:100E800011D0343235323632333E0CD005D03F8665
:100E900004D03F84336A02D03F823368366A356AB1
:100EA000800E346E42AE349E365012003450316E95
:100EB0003818426E3350D8A437503AE033267E0EAD
:100EC00003E3335E03E336D0335E31E336C02FF005
:100ED00035C030F0318E388E366A356A346A180E75
:100EE000406E313230322F3206E33A5036263950D6
:100EF000352238503422343235323632402EF1D752
:100F000034BE07D0363635363436335210E0330629
:100F1000313416E3363E14D0353E12D0343E10D074
:100F2000D880343235323632333E0AD003D03F8453
:100F3000336A02D03F823368366A356A800E346E77
:100F400042AE349E3650120033C040F0345036C0AA
:100F500034F0366E3636403236323F6A36364036F8
:100F600002E33F843F7E06E13F80406A366A356A8D
:100F7000346A0BD0402803E0D880363206D0D890AF
:100F8000363202E13F8201D03F863FB604D03FA215
:100F90000FD03FB407D07F0E366EFF0E356E346E25
:100FA000336E23D0800E366E01D0366A000EF6D72F
:100FB0003FB0FBD7336A9F0E4060EBD77E0E406494
:100FC000F4D79E0E405C07E0D8903632353234328A
:100FD0003332402AF6D73FA408D0D880000E3356CB
:100FE00034563556365636AEE0D733501200000E22
:100FF00034BEFF0E356E366E06D0336E346A356AF7
:10100000366A429E0AD0429E36AE07D0D880000E85
:101010003356345635563656428E960E406E3652FC
:1010200009E0080E402634C033F035C034F036C035
:1010300035F011D035520FE1080E405E345007E113
:10104000080E405E335002E1365010D0336A356EE0
:1010500033C034F0336A35BE06D0D89033363436D8
:1010600035364006F8D742AE359E405033C036F094
:10107000336E355034C035F0346E120024504D5468
:101080004B3136312C302A323800424354524143DE
:101090004B20000024505542582C34302C474C4CE7
:1010A0002C302C302C302C302A3543002450554223
:1010B000582C34302C5A44412C302C302C302C30CD
:1010C0002A34340024505542582C34302C4753567F
:1010D0002C302C302C302C302A35390024505542FD
:1010E000582C34302C4753412C302C302C302C30A1
:1010F0002A34450024505542582C34302C524D434C
:101100002C302C302C302C302A34370024505542CF
:10111000582C34302C4747412C312C312C302C307A
:101120002A35410024505542582C34302C5654470F
:101130002C312C312C302C302A35450024504D5484
:101140004B3331342C302C302C312C312C302C3092
:101150002C302C302C302C302C302C302C302C30AF
:101160002C302C302C302C302C302A3238002450AB
:101170004D544B3130312A33320047504747412CD0
:101180003132303030302E3030302C333531352E56
:10119000393237392C4E2C30313934392E32313600
:1011A0002C452C312C31302C312E322C3230302E3B
:1011B000302C4D2C2D33342E322C4D2C2C30303005
:1011C000302A000047505654472C3330392E3632DF
:1011D0002C542C202C4D2C302E31332C4E2C302ED8
:1011E000322C4B2C412A32330000212121214E4F39
:1011F00020454E4F55474820534154454C4954458E
:1012000053002121212147505320434F4D4D554E2E
:1012100049434154494F4E204552524F52202020BD
:1012200000002121212147505320435243204552A1
:10123000524F522020200000544553542044452052
:10124000000042414C4C4F4F4E205041594C4F41B1
:10125000442056200000204259204F4D3342430085
:10126000547970652048454C5020666F7220496E55
:10127000666F00004543484F00004D5943004D59EB
:1012800043414C4C0000545200005452414345002D
:1012900054584400545844454C415900554E500050
:1012A000554E50524F544F0044495350000044494A
:1012B00053504C41590048454C500000534552474B
:1012C000505300005454455854005441494C0000B8
:1012D00053594D424F4C0000484F4C440000484F7A
:1012E0004C444F4646005458540054585441494CBD
:1012F00000005645520056455253494F4E00435741
:1013000049440000435742415400435754454D500F
:1013100000005052455353005052455353555245C7
:101320000000465251004652455155454E43590022
:1013300052465251000044455600444556494154D6
:10134000494F4E004241554400005350454544002A
:101350004442495453005342495453004241545665
:10136000000054454D500000494E54454D5000007A
:10137000455854454D500000504F55540000504FB3
:101380005745520049445350000043575350000002
:10139000534F4C415200534F4C415243454C4C002B
:1013A00055534F4C000049534F4C00005355505675
:1013B000000043574C0043574C4F43004C4F4341B0
:1013C000544F52004C4F4331300052454600444187
:1013D00054410000534C45455000544553540000BF
:1013E00043414C494252415445005345545000003A
:1013F000475053004150525300005254545900007A
:101400004F4646534554000054454C0054454C4506
:101410004D455452590052444154410052415700E5
:10142000455849540000436F6D6D616E64206973C7
:10143000206E6F742076616C6964000031202D206D
:101440006F6E626F6172642074656D702E20322041
:101450002D2065787465726E616C2074656D702ED8
:101460002033202D2052432074656D7065726174A5
:101470007572650034202D20626174657279207662
:101480006F6C746167652035202D207379737465E6
:101490006D20766F6C746167652036202D20736F28
:1014A0006C617220766F6C746167652037202D2027
:1014B0006368617267652063757272656E7400009F
:1014C00038202D20616972207072657373757265A2
:1014D0002039202D20686561726420736174746501
:1014E0006C6974657300436831202D2000004368E7
:1014F00032202D200000436833202D200000436857
:1015000034202D200000436835202D200000434169
:101510004C494252415445204F4E000053455420FF
:101520004652455155454E4359204F4E20504F523B
:1015300054412E3220544F203132303020487A002E
:101540007479706520552870292C2044286F776E97
:10155000292C2053286176652920726573702E200E
:1015600045286E6429004D5943616C6C2000504F32
:10157000574552204F55543A20005443584F204667
:1015800052455155454E43593A2000005254545942
:101590002026204357204652455155454E43593A3F
:1015A000200041505253204652455155454E435913
:1015B0003A200000525454593A20000044455649FC
:1015C0004154494F4E3A200053504545443A20007B
:1015D0004441544120424954533A200053544F50FF
:1015E00020424954533A2000424154566F6C746172
:1015F00067653A200000535550706C79566F6C74D3
:101600006167653A200054454D506572617475728A
:10161000653A2000494E7465726E616C54454D50B8
:10162000657261747572653A200045587465726E12
:10163000616C54454D50657261747572653A200055
:10164000435749443A200000435753503A20000082
:1016500043574C4F433A200043574241543A2000ED
:10166000435754454D503A2000004C4F4341544F8E
:10167000523A20004C4F4331303A200041505253EF
:101680003A200000554E50726F746F20000054587D
:1016900044656C61793A200054585461696C3A2071
:1016A000000053594D424F4C3A20000054526163A0
:1016B000653A20005441494C3A2000004576657255
:1016C0007920000054544558543A2000484F4C4467
:1016D0004F46463A20004543484F3A200000534FBA
:1016E0004C41523A2000536F6C6172566F6C7461BA
:1016F00067653A200000536F6C61724375727265C2
:101700006E743A2000005155454354454C005052E8
:101710004553535552453A200000534C4545503AE5
:1017200020005345524750533A200000343830309F
:101730002042640039363030204264003139323082
:1017400030204264000054656C656D657472793AAE
:10175000200054656C656D657472792064617461F4
:101760003A2000006E6F726D616C00002C2043689F
:10177000323A20002C204368333A20002C20436862
:10178000343A20002C204368353A20004D617820FF
:10179000646576696174696F6E20697320313030D9
:1017A0003020487A00004D61782062617564726172
:1017B00074652069732031303030204264004D61FF
:1017C00078206461746120626974732069732038C1
:1017D00000004D61782073746F702062697473200B
:1017E00069732032000056455253494F4E3A204209
:1017F00043504C20762E0000564261743A2000007F
:1018000054656D703A2000004E6F6D696E616C20FA
:10181000506F75743A20000055202D2050575220EB
:1018200055702C2044202D2050575220446F776E45
:101830002C2045202D20457869740000436F6D6D84
:10184000616E6473202877697468206578616D70B3
:101850006C65293A20004449535020202020202044
:101860002D20446973706C617920616C6C20736504
:1018700074696E6773004D5943616C6C20202020A1
:101880002D20286D7963616C6C204F4D3342432DC0
:1018900031312900545261636520202020202D2001
:1018A00028786D69742F6F66662920666F722064D0
:1018B0006562756767696E67206F6E6C7900545852
:1018C00044656C61792020202D20747864656C61FA
:1018D00079206E20303C6E3C31303020286E2078EC
:1018E000203130206D73290054585461696C2020D8
:1018F00020202D205458207461696C2074696D6516
:1019000020286E2078203130206D73290000554E3C
:1019100050726F746F2020202D2028756E70726FAA
:10192000746F206170727320762077696465312D41
:101930003129202D2033206469676973206D617817
:10194000000053594D424F4C202020202D203220A2
:10195000415052532073796D626F6C73202D206457
:10196000656661756C742069732042414C4C4F4F21
:101970004E20282F4F2900004652512020202020A1
:1019800020202D206672657175656E637920666F03
:1019900072204150525320696E20487A000052460E
:1019A00052512020202020202D20667265717565FF
:1019B0006E637920666F722052545459202620435A
:1019C0005720696E20487A00525454592020202014
:1019D00020202D204F4E206F72204F464600415050
:1019E00052532020202020202D204F4E206F722087
:1019F0004F464600444556202020202020202D2000
:101A0000646576696174696F6E20696E20487A003A
:101A1000424155442020202020202D206261756401
:101A20007261746520666F7220525454592074722A
:101A3000616E736D697474696E6700004442495445
:101A40005320202020202D206E756D626572206F3E
:101A50006620646174616269747300005342495482
:101A60005320202020202D206E756D626572206F1E
:101A7000662073746F706269747320312E35203D57
:101A800020313500424154562020202020202D2096
:101A900073656E642062617465727920766F6C7410
:101AA00061676520285254545929202D20594553E7
:101AB000206F72204E4F000053555056202020209A
:101AC00020202D2073656E6420737570706C7920F2
:101AD000766F6C7461676520285254545929202D03
:101AE00020594553206F72204E4F000054454D50F1
:101AF0002020202020202D2073656E6420696E62D6
:101B00006F782074656D70657261747572652028D8
:101B10005254545929202D20594553206F72204E7C
:101B20004F00494E54454D50202020202D207365F4
:101B30006E6420726164696F636869702074656D9A
:101B40007065726174757265202852545459292049
:101B50002D20594553206F72204E4F004558544553
:101B60004D50202020202D2073656E6420657874F0
:101B700065726E616C2074656D70657261747572EA
:101B80006520285254545929202D20594553206F3F
:101B900072204E4F0000504F55542020202020200E
:101BA0002D206F757470757420706F776572206961
:101BB0006E206D5700005245462020202020202016
:101BC0002D20584F206F72205443584F2066726565
:101BD0007175656E637920696E20487A20286D6979
:101BE0006E2E2031303030303030302C206D617826
:101BF0002E203332303030303030000050524553D8
:101C00005375726520202D204F4E203D20424D50AF
:101C10003138302070726573656E742C204F4646E3
:101C2000203D206E6F742070726573656E740000C5
:101C3000484F4C446F66662020202D20686F6C64EE
:101C4000206F66662074696D6520696E206D696E0F
:101C500075746573000043574944202020202020DC
:101C60002D2073656E64204357206964656E746926
:101C700066696572204F4E206F72204F4646000005
:101C8000435742415420202020202D2073656E644C
:101C90002062617465727920766F6C74616765206B
:101CA00028435729202D20594553206F72204E4F2D
:101CB0000000435754454D50202020202D207365AF
:101CC0006E642074656D706572617475726520282C
:101CD000435729202D20594553206F72204E4F0025
:101CE000435753502020202020202D2073706565FD
:101CF00064206F66204357206964656E7469666965
:101D0000657220696E2057504D0043574C202020AB
:101D1000202020202D2073656E6420515241206CBC
:101D20006F632E20616E6420616C746974756465E4
:101D300020696E204357202D20594553206F722073
:101D40004E4F00004C4F4341544F522020202D2035
:101D500073656E6420515241206C6F6361746F72C1
:101D6000202D20594553206F72204E4F00004C4FBC
:101D700043313020202020202D2073656E642031D7
:101D80003020636861722E206F6620515241206CB2
:101D90006F632E204F4E203D2031302C204F464681
:101DA000203D20362063686172616B746572730038
:101DB000534F4C415263656C6C202D206D6F756ED6
:101DC000746564202D204F4E206F72206E6F74203A
:101DD0006D6F756E746564202D204F464600555317
:101DE0004F4C2020202020202D2073656E6420730E
:101DF0006F6C617220766F6C74616765202D20595D
:101E00004553206F72204E4F000049534F4C202005
:101E1000202020202D2073656E6420736F6C61720A
:101E20002063757272656E7420594553206F72205D
:101E30004E4F00004543484F2020202020202D20D9
:101E40004F4E206F72204F464600534C4545502060
:101E5000202020202D2073776974636820746865C2
:101E600020475053207265636569766572202D2086
:101E70004F4E206F72204F464600534552475053F5
:101E8000202020202D206261756472617465206FAE
:101E90006620475053207265636569766572202815
:101EA00034383030206F722039363030206F722055
:101EB000313932303029000043414C4942524154BB
:101EC00045202D2063616C69627261746520313236
:101ED0003030487A00004441544120202020202006
:101EE0002D206964656E74696669636174696F6EDB
:101EF000206F662074686520726164696F20636872
:101F000069700000475053202020202020202D20E1
:101F10004F4E202D20666F72206E6F726D616C20A7
:101F20006D6F64652C204F4646202D20666F722011
:101F300074657374696E6720776974686F7574204F
:101F40004750532072656365697665720000564597
:101F500052202020202020202D20736F667477616E
:101F600072652076657273696F6E0000455849543A
:101F70002020202020202D20656E64206F662063A5
:101F80006F6D6D616E6420696E74657270726574D8
:101F9000657200005441494C20287461696C2074BA
:101FA000657874206576657279206E292D286F6EAC
:101FB0002C6F66662C6E292D6E3D30206973206F64
:101FC000666620616E6420313C6E3C392065766522
:101FD0007279206E2D7468206D657373616765007A
:101FE000545445585420202020202D207461696CC1
:101FF0002074657874202D20313030206368617240
:1020000073206D6178005461696C20746578742068
:10201000636F6D6D616E64733A005C552020202003
:10202000202020202D2073656E642062617465720B
:102030007920766F6C74616765005C5620202020E3
:10204000202020202D2073656E64207379737465C1
:102050006D20766F6C74616765005C5320202020D2
:10206000202020202D2073656E6420736F6C6172B8
:1020700020766F6C7461676500005C492020202029
:10208000202020202D2073656E6420736F6C617298
:102090002063757272656E7400005C5420202020ED
:1020A000202020202D2073656E6420696E74657277
:1020B0006E616C2074656D70657261747572650017
:1020C0005C5820202020202020202D2073656E6465
:1020D0002065787465726E616C2074656D706572D0
:1020E0006174757265005C5720202020202020201C
:1020F0002D2073656E6420726164696F6368697016
:102100002074656D706572617475726500005C5055
:1021100020202020202020202D2073656E64207038
:1021200072657373757265005C4620202020202044
:1021300020202D2073656E642074656D706572615A
:10214000747572652066726F6D2070726573737539
:1021500072652073656E736F72005C4220202020D0
:10216000202020202D2073656E64206E756D6265C1
:1021700072206F662072656365697665642073619D
:1021800074656C6C6974657300005C5A20202020B3
:10219000202020202D20736F667477617265207671
:1021A000657273696F6E000054454C656D6574729D
:1021B00079202D204F4E206F72204F46460052410D
:1021C00057202020202020202D207365742072614C
:1021D000772074656C656D657472696320646174E1
:1021E000612028302D39393929004176616C6961C7
:1021F000626C652076616C75657320666F72207401
:10220000656C656D657472793A0031202D206F6EB2
:10221000626F6172642074656D706572617475724D
:10222000650032202D2065787465726E616C2074B3
:10223000656D7065726174757265000033202D20C4
:10224000726164696F636869702074656D7065722E
:1022500061747572650034202D2062617465727935
:1022600020766F6C74616765000035202D207379CE
:102270007374656D20766F6C74616765000036203D
:102280002D20736F6C617263656C6C20766F6C745B
:102290006167650037202D206368617267696E672A
:1022A0002063757272656E74000038202D2061699C
:1022B00072207072657373757265000039202D206D
:1022C00068656172642073617474656C69746573A8
:1022D000000030202D206368616E6E656C206E6F8B
:1022E0007420757365640000526164696F206368CF
:1022F0006970206E6F7420636F6E6E6563746564C1
:102300000000526164696F206368697020636F6DBB
:102310006D756E69636174696F6E206572726F723C
:10232000000043686970205265766973696F6E3A80
:102330002000506172743A20536900005061727439
:10234000204275696C643A203078000044657363FC
:1023500072697074696F6E2049643A2030780000A9
:10236000437573746F6D65722049643A203078004C
:10237000524F4D2049643A203078000024504D548B
:102380004B3130322A33310053617665643A200094
:102390004E6F74207361766564202D2041637475DF
:1023A000616C2076616C75653A2000004150525393
:1023B000202000002C3030303030303030004E6F74
:1023C0007468696E6700496E742E54656D70000004
:1023D0004578742E54656D70000052432E54656D1F
:1023E00070004261742E566F6C7400005379732E26
:1023F000566F6C740000536F6C2E566F6C74000037
:10240000536F6C2E43757272000050726573737552
:102410007265000053617474656C697465730000C3
:102420003A5041524D2E00003A554E49542E00006C
:102430003A45514E532E00003A424954532E303003
:102440003030303030302C42414C4C4F4F4E2045D4
:1024500058504552494D454E54002C4E432C4E4346
:102460002C4E432C4E432C4E432C4E432C4E432C8F
:102470004E43000054656D70496E0000302C302EC4
:10248000312C2D34300054656D7045780000546552
:102490006D7052430000302C302E30312C30000053
:1024A000302C312C2D3130300000302C312C353097
:1024B000000008000000090000000A0000000B00F6
:1024C00000000C0000000D0000000E0000001000D5
:1024D00000001200000014000000170000001A00A5
:1024E00000001E00000022000000270000002D0058
:1024F000000036000000460000005E0000007F0083
:1025000000007F0000007F000000080000000900BC
:1025100000000A0000000B0000000C0000000D008D
:1025200000000E0000001000000012000000140067
:102530000000170000001A0000001E00000022002A
:102540000000270000002D000000360000004600BB
:1025500000005E0000007F0000007F0000007F00A0
:10256000000008000000090000000A0000000B0045
:1025700000000C0000000D0000000E000000100024
:1025800000001200000014000000170000001A00F4
:1025900000001E00000022000000270000002D00A7
:1025A000000036000000460000005E0000007F00D2
:1025B00000007F0000007F0000000800000009000C
:1025C00000000A0000000B0000000C0000000D00DD
:1025D00000000E00000010000000120000001400B7
:1025E0000000170000001A0000001E00000022007A
:1025F0000000270000002D0000003600000046000B
:1026000000005E0000007F0000007F0000007F00EF
:10261000000008000000090000000A0000000B0094
:1026200000000C0000000D0000000E000000100073
:1026300000001200000014000000170000001A0043
:1026400000001E00000022000000270000002D00F6
:10265000000036000000460000005E0000007F0021
:1026600000007F0000007F000000400E3F6E006A07
:10267000A00E756E240E726E900E716E0001AB0E80
:10268000926E9A0E936E1D0E946EF40ED36ED26AF5
:10269000C00E9B6E796A786AF26AF16AF06A816AA2
:1026A000010EC26E080EC16EAB0EC06E0B0E0F0196
:1026B000386F396B080E3A6FE00E426F416F100EA3
:1026C000406F9E0E9C6E9D6AA06A040E9F6EA26A69
:1026D000070ED56E460ECD6ECC6ABD6A2F0EBA6E51
:1026E000140E516F4E6B4A6BC66A6C6AAC98AC8420
:1026F000B886060EB06E800EAF6EAB9E7086729876
:102700007284060E766E800E756E718E0301176BE5
:10271000186B196B156B166B00EE8AF0EF6A00EE02
:1027200090F0EF6A00EE9BF0EF6A00EEA6F0EF6A21
:1027300000EEB1F0EF6A00EEBCF0EF6A00EEC7F019
:10274000EF6A00EED2F0EF6A0501E16BE06BDF6B40
:10275000DE6BE36BE26BCC6B06011E6B0501D96B84
:10276000D86B0601206B010E1F6F218103011891A8
:102770000601219503014B6B4C6B4E6F2C0E4D6F78
:10278000010E0501FD6F2C0EFC6F640EFE6F06013D
:10279000026B030117931A6B949A8B8A94928B9213
:1027A0005A0E5C630AD05A0E5D6307D05A0E5E6300
:1027B00004D05F515A0A000102E0000E01D0010E60
:1027C0003C6E000E030112B7010E3C16000139E009
:1027D000270E166E100E2CEC03F065EC54F003017E
:1027E00018810001366A356A200E346E7F0E336E12
:1027F000DDC53AF0DCC539F0DBC538F0DAC537F0B5
:10280000DEEC05F00108E4E003011831000119E3F2
:1028100003012C6B2B6B010E03012C5D000106E301
:1028200010E12D0E03012B5D00010BE2070E166E69
:10283000D00E2CEC03F003012B2B000E2C230001F7
:10284000EAE35A0E03015F6F5E6F5D6F5C6F948207
:102850003A0E9BEC02F02F6F9DEC02F0306F240ECD
:102860009BEC02F0126F3C0E9BEC02F00601046F31
:10287000010E166E2C0E2CEC03F0320E03011A5DC5
:1028800000010EE2800E026E800E096E226A04C6FE
:1028900021F07BEC01F003011C6F1A2B0001EDD736
:1028A00003011C53000104E10301128D000163D1F7
:1028B000800E026E800E096E226A04C621F0130E8D
:1028C000066E880E056E5FEC01F0D8A054D1240886
:1028D000FAE15FEC01F0D8A04ED14708F4E15FECDB
:1028E00001F0D8A048D103011C6F4E0E1C5D000101
:1028F0000FE1030112510001E8B808D00301128969
:10290000AA6A240EA96E1251A4EC02F000011FD095
:10291000800E026E800E096E226A04C621F07BECE6
:1029200001F003011C6F470E1C5D00010FE0030165
:1029300012510001E8A808D003011299AA6A240ED6
:10294000A96E1251A4EC02F0000101D0B1D703012D
:1029500012510001E8B81CD0800E026E400E096EC4
:10296000226A04C621F0066A056A200E016E100E66
:10297000F76E7C0EF66E0900F55003E09FEC01F057
:10298000FAD70D0E9FEC01F00A0E9FEC01F0EFD08C
:10299000800E026E400E096E226A04C621F0066A9D
:1029A000056A200E016EB50E9FEC01F0620E9FECE1
:1029B00001F0060E9FEC01F0110E9FEC01F0020EEB
:1029C0009FEC01F0000E9FEC01F0080E9FEC01F06F
:1029D000040E9FEC01F0250E9FEC01F0950E9FEC8C
:1029E00001F0B50E9FEC01F0620E9FEC01F0060EB7
:1029F0009FEC01F0090E9FEC01F00D0E9FEC01F031
:102A0000000E9FEC01F0000E9FEC01F0000E9FEC19
:102A100001F0000E9FEC01F0000E9FEC01F0FF0EA4
:102A20009FEC01F0FF0E9FEC01F0000E9FEC01F017
:102A3000000E9FEC01F0000E9FEC01F0000E9FECE9
:102A400001F0000E9FEC01F0000E9FEC01F0070E6C
:102A50009FEC01F0210E9FEC01F0AF0E9FEC01F016
:102A6000800E026E400E096E226A04C621F0066ACC
:102A7000056A200E016EB50E9FEC01F0620E9FEC10
:102A800001F0060E9FEC01F0110E9FEC01F0000E1C
:102A90009FEC01F0000E9FEC01F0170E9FEC01F08F
:102AA0004B0E9FEC01F0640E2BEC03F0800E026ED7
:102AB000400E096E226A04C621F0066A056A200EDD
:102AC000016EB50E9FEC01F0620E9FEC01F0060E58
:102AD0009FEC01F0570E9FEC01F0080E9FEC01F007
:102AE000000E9FEC01F0010E9FEC01F0000E9FEC38
:102AF00001F0000E9FEC01F0000E9FEC01F0500E73
:102B00009FEC01F04F0E9FEC01F0540E9FEC01F092
:102B1000530E9FEC01F0AC0E9FEC01F0850E9FEC84
:102B200001F0800E026E400E096E226A04C621F08A
:102B3000066A056A200E016EB50E9FEC01F0620E6A
:102B40009FEC01F0060E9FEC01F0570E9FEC01F098
:102B5000000E9FEC01F0000E9FEC01F05D0E9FEC6B
:102B600001F01D0E9FEC01F0640E2BEC03F0949A23
:102B70008B8A94928B92D0EC49F0640E2BEC03F08C
:102B8000949A8B8A020E166E580E2CEC03F0949ACF
:102B90008B9AAFC5C5F5AEC5C4F5ADC5C3F5ACC51B
:102BA000C2F5C6EC4CF0C80E2BEC03F0070E050185
:102BB0004A6F020E4B6F010E4C6F4D6FC5C54EF53F
:102BC000C4C54FF5C3C550F5C2C551F500016CEC45
:102BD00052F0140E2BEC03F0040E05014A6F200E88
:102BE0004B6F4C6B4D6B4E6B00016CEC52F0140E46
:102BF0002BEC03F0080E05014A6F130E4B6F040E09
:102C00004C6F150E4D6F210E4E6F200E4F6F080E3C
:102C1000506F0B0E516F526B00016CEC52F000ECD8
:102C20005DF03CEC28F0080E0501A72503011C6FA0
:102C3000050E05014A6F110E4B6F200E4C6F010EF1
:102C40004D6F510E4E6F1CC34FF500014CEC52F00E
:102C5000060E05014A6F110E4B6F200E4C6F020ECF
:102C60004D6F0D0E4E6F4F6B506B00014CEC52F0E0
:102C7000050E05014A6F110E4B6F220E4C6F010EAF
:102C80004D6F4E6B080E4F6F00014CEC52F045EC4F
:102C900027F00501CB6B000155EC27F0050E05016F
:102CA0004A6F110E4B6F4C6B010E4D6F4E6F4F6F95
:102CB00000014CEC52F00C0E05014A6F110E4B6FE7
:102CC000200E4C6F080E4D6F180E4E6F010E4F6F99
:102CD000506B080E516F020E526F800E536F546B83
:102CE000F00E556F100E566F00014CEC52F00D0EA9
:102CF00005014A6F110E4B6F200E4C6F090E4D6F80
:102D0000220E4E6F4F6B820E506F030E516FEE0E00
:102D1000526FA20E536F020E546F5D0E556F020E6E
:102D2000566F576B00014CEC52F00C0E05014A6FC8
:102D3000110E4B6F200E4C6F080E4D6F420E4E6FF2
:102D4000A40E4F6F030E506FD60E516F030E526FCD
:102D5000536BF50E546F010E556F800E566F0001C8
:102D60004CEC52F0100E05014A6F110E4B6F210E04
:102D70004C6F0C0E4D6F4E6BA20E4F6F810E506F4D
:102D8000260E516FAF0E526F3F0E536FEE0E546F03
:102D9000C80E556FC70E566FDB0E576FF20E586F89
:102DA000020E596F080E5A6F00014CEC52F0100ED3
:102DB00005014A6F110E4B6F210E4C6F0C0E4D6FBB
:102DC0004E6F070E4F6F030E506F150E516FFC0EB6
:102DD000526F0F0E536F546BA20E556F810E566FCC
:102DE000260E576FAF0E586F3F0E596FEE0E5A6F8B
:102DF00000014CEC52F0100E05014A6F110E4B6FA2
:102E0000210E4C6F0C0E4D6F180E4E6FC80E4F6F8B
:102E1000C70E506FDB0E516FF20E526F020E536FE2
:102E2000080E546F070E556F030E566F150E576F31
:102E3000FC0E586F0F0E596F5A6B00014CEC52F09C
:102E4000080E05014A6F110E4B6F220E4C6F040ED7
:102E50004D6F4E6B080E4F6F7F0E506F516B3D0ED6
:102E6000526F00014CEC52F00B0E05014A6F110E2F
:102E70004B6F230E4C6F070E4D6F4E6B2C0E4F6F2A
:102E80000E0E506F0B0E516F040E526F0C0E536FDF
:102E9000730E546F030E556F00014CEC52F027EC8B
:102EA00027F081EC27F0320E2BEC03F06DEC27F0CD
:102EB00005EC6AF08EEF2BF0719E948203011251A3
:102EC0000001E8AA02D003EC5FF0030114510001F5
:102ED000E8AA02D0D0EC57F003011235000122E33A
:102EE00000EEE8F0100EF76E8A0EF66E6CEC04F051
:102EF000020E016E086A1A6A070E196EA1EC00F044
:102F00002E0EEE6E020E016E010E086E4B0E9FEC41
:102F100000F00D0EEE6EEE6A65EC28F007EC67F03F
:102F20008AEC28F082949494640E2BEC03F0948441
:102F3000030E166EE80E2CEC03F003011251000193
:102F4000E8A837D2800E026E400E096E226A04C6CF
:102F500021F0066A056A200E016EB50E9FEC01F0A5
:102F6000620E9FEC01F0060E9FEC01F03B0E9FEC11
:102F700001F02C0E9FEC01F0000E9FEC01F0010E11
:102F80009FEC01F0060E9FEC01F0000E9FEC01F0AB
:102F9000000E9FEC01F0000E9FEC01F0900E9FECF4
:102FA00001F0020E9FEC01F0000E9FEC01F0E80E24
:102FB0009FEC01F0030E9FEC01F0000E9FEC01F07E
:102FC000000E9FEC01F0100E9FEC01F0800E026EDF
:102FD000400E096E226A04C621F0066A056A200EB8
:102FE000016E270E9FEC01F0000E9FEC01F0000E29
:102FF0009FEC01F0000E9FEC01F0000E9FEC01F041
:10300000000E9FEC01F0000E9FEC01F0000E9FEC13
:1030100001F0000E9FEC01F0000E9FEC01F0000E9D
:103020009FEC01F02C0E9FEC01F0010E9FEC01F0E3
:10303000000E9FEC01F0000E9FEC01F04F0E9FEC94
:1030400001F0C10E9FEC01F0030E9FEC01F0000EA9
:103050009FEC01F0800E026E400E096E226A04C6DB
:1030600021F0066A056A200E016E860E9FEC01F0C3
:10307000020E9FEC01F0000E9FEC01F0000E9FECA1
:1030800001F0FE0E9FEC01F0000E9FEC01F0000E2F
:103090009FEC01F0000E9FEC01F0640E9FEC01F03C
:1030A000400E9FEC01F0010E9FEC01F0000E9FEC32
:1030B00001F0930E9FEC01F0950E9FEC01F0800E55
:1030C000026E400E096E226A04C621F0066A056A85
:1030D000200E016EB50E9FEC01F0620E9FEC01F028
:1030E000060E9FEC01F03B0E9FEC01F0000E9FECF2
:1030F00001F0000E9FEC01F0410E9FEC01F0C90EB3
:103100009FEC01F0640E2BEC03F0800E026E400E7B
:10311000096E226A04C621F0066A056A200E016E55
:10312000B50E9FEC01F0620E9FEC01F0060E9FECD5
:1031300001F0160E9FEC01F0080E9FEC01F0000E5E
:103140009FEC01F0010E9FEC01F0030E9FEC01F0EB
:10315000030E9FEC01F0000E9FEC01F0510E9FEC6E
:1031600001F0080E9FEC01F0000E9FEC01F0000E44
:103170009FEC01F0840E9FEC01F0150E9FEC01F026
:10318000800E026E400E096E226A04C621F0066AA5
:10319000056A200E016EB50E9FEC01F0620E9FECE9
:1031A00001F0060E9FEC01F0160E9FEC01F0000EF0
:1031B0009FEC01F0000E9FEC01F01C0E9FEC01F063
:1031C0005A0E9FEC01F0640E2BEC03F0800E026EA1
:1031D000400E096E226A04C621F0066A056A200EB6
:1031E000016EB50E9FEC01F0620E9FEC01F0060E31
:1031F0009FEC01F0110E9FEC01F0020E9FEC01F02C
:10320000000E9FEC01F0080E9FEC01F0040E9FEC05
:1032100001F0250E9FEC01F0950E9FEC01F0B50E2C
:103220009FEC01F0620E9FEC01F0060E9FEC01F0A6
:10323000090E9FEC01F00D0E9FEC01F0000E9FECCB
:1032400001F0000E9FEC01F0000E9FEC01F0000E6B
:103250009FEC01F0000E9FEC01F0FF0E9FEC01F0DF
:10326000FF0E9FEC01F0000E9FEC01F0000E9FECB2
:1032700001F0000E9FEC01F0000E9FEC01F0000E3B
:103280009FEC01F0000E9FEC01F0070E9FEC01F0A7
:10329000210E9FEC01F0AF0E9FEC01F0800E026E4C
:1032A000400E096E226A04C621F0066A056A200EE5
:1032B000016EB50E9FEC01F0620E9FEC01F0060E60
:1032C0009FEC01F0110E9FEC01F0000E9FEC01F05D
:1032D000000E9FEC01F0170E9FEC01F04B0E9FECDF
:1032E00001F0640E2BEC03F000EEE8F0100EF76E28
:1032F000940EF66E6CEC04F0EF6A9BEC6DF0640ECD
:103300002BEC03F000EEE8F0100EF76EAC0EF66E4C
:103310006CEC04F0EF6A9BEC6DF0640E2BEC03F0A8
:1033200000EEE8F0100EF76EC40EF66E6CEC04F0D2
:10333000EF6A9BEC6DF0640E2BEC03F000EEE8F00E
:10334000100EF76EDC0EF66E6CEC04F0EF6A9BEC80
:103350006DF0640E2BEC03F000EEE8F0100EF76E4B
:10336000F40EF66E6CEC04F0EF6A9BEC6DF0640EFC
:103370002BEC03F000EEE8F0110EF76E0C0EF66E7B
:103380006CEC04F0EF6A9BEC6DF0640E2BEC03F038
:1033900000EEE8F0110EF76E240EF66E6CEC04F001
:1033A000EF6A9BEC6DF0640E2BEC03F0B3EC64F071
:1033B0000BD000EEE8F0110EF76E3C0EF66E6CECE2
:1033C00004F0EF6A9BEC6DF0640E2BEC03F012EC52
:1033D0006DF0030118310001D8B0AFD58CD1030EC8
:1033E0000601025D000106E2EA0E166E600E2CEC8C
:1033F00003F081D1030112510001E8A484D003013C
:1034000012510001E8B81CD0800E026E400E096E09
:10341000226A04C621F0066A056A200E016E100EAB
:10342000F76E7C0EF66E0900F55003E09FEC01F09C
:10343000FAD70D0E9FEC01F00A0E9FEC01F05ED062
:10344000800E026E400E096E226A04C621F0066AE2
:10345000056A200E016EB50E9FEC01F0620E9FEC26
:1034600001F0060E9FEC01F0570E9FEC01F0080EE4
:103470009FEC01F0000E9FEC01F0010E9FEC01F0BB
:10348000000E9FEC01F0000E9FEC01F0000E9FEC8F
:1034900001F0500E9FEC01F04F0E9FEC01F0540E26
:1034A0009FEC01F0530E9FEC01F0AC0E9FEC01F08D
:1034B000850E9FEC01F0800E026E400E096E226AAE
:1034C00004C621F0066A056A200E016EB50E9FEC57
:1034D00001F0620E9FEC01F0060E9FEC01F0570E1A
:1034E0009FEC01F0000E9FEC01F0000E9FEC01F04C
:1034F0005D0E9FEC01F01D0E9FEC01F0640E2BECB5
:1035000003F094928B92A20ED36ED2889B9CC290B1
:1035100003015653000109E003015607010E166E20
:10352000D50E2CEC03F00001F3D703011451000178
:10353000E8B603D0200E2BEC03F00301123100019A
:1035400003E2400E2BEC03F003011235000103E20D
:10355000750E2BEC03F0030114510001E8BA05D0FD
:10356000010E166E1C0E2CEC03F09B8CD298F40E00
:10357000D36EC2802D0E9BEC02F00301566F173103
:10358000000103E3020E0301566F030156530001CD
:1035900002E003015607030112510001E8A617D00B
:1035A000C6EC54F0E1C536F0E0C535F0DFC534F0C7
:1035B000DEC533F03A6A396A386A7E0E376EA6EC99
:1035C00005F0010804E0D89003015637562B03019B
:1035D00012510001E8A483D09482640E2BEC03F016
:1035E000030112510001E8B81CD0800E026E400E9B
:1035F000096E226A04C621F0066A056A200E016E71
:10360000110EF76E6E0EF66E0900F55003E09FEC9A
:1036100001F0FAD70D0E9FEC01F00A0E9FEC01F0BD
:103620005ED0800E026E400E096E226A04C621F042
:10363000066A056A200E016EB50E9FEC01F0620E5F
:103640009FEC01F0060E9FEC01F0570E9FEC01F08D
:10365000080E9FEC01F0000E9FEC01F0010E9FECB4
:1036600001F0000E9FEC01F0000E9FEC01F0000E47
:103670009FEC01F0200E9FEC01F04E0E9FEC01F04C
:10368000550E9FEC01F0520E9FEC01F07B0E9FEC6B
:1036900001F0C30E9FEC01F0800E026E400E096E29
:1036A000226A04C621F0066A056A200E016EB50E74
:1036B0009FEC01F0620E9FEC01F0060E9FEC01F012
:1036C000570E9FEC01F0000E9FEC01F0000E9FECF6
:1036D00001F05D0E9FEC01F01D0E9FEC01F0070E56
:1036E000166ED00E2CEC03F003015553000102E0DE
:1036F0000301550700011AD9010E0501FD5D000106
:1037000008E305E12C0E0501FC5D000102E3000E5B
:1037100001D0010E3C6E000E030117B3010E3C16E2
:10372000000106E003011781000155EC25F0EAD005
:10373000030112310001D8B071EC25F0030E06012F
:10374000025D0001D8A0DED0030114510001E8AAF7
:1037500002D021EC24F0030112350001D8B04AEC6C
:1037600065F0130E166E880E2CEC03F0DFD8010EF8
:103770000501FD5D000108E305E1F40E0501FC5DB6
:10378000000102E3000E01D0010E3C6E000E0301A9
:1037900017B3010E3C16000106E00301178100017A
:1037A00055EC25F00DD0030114510001E8AA02D018
:1037B00021EC24F0030112350001D8B01DEC65F0B6
:1037C000030112510001E8A484D003011251000149
:1037D000E8B81CD0800E026E400E096E226A04C644
:1037E00021F0066A056A200E016E100EF76E7C0E3F
:1037F000F66E0900F55003E09FEC01F0FAD70D0ECC
:103800009FEC01F00A0E9FEC01F05ED0800E026E7C
:10381000400E096E226A04C621F0066A056A200E6F
:10382000016EB50E9FEC01F0620E9FEC01F0060EEA
:103830009FEC01F0570E9FEC01F0080E9FEC01F099
:10384000000E9FEC01F0010E9FEC01F0000E9FECCA
:1038500001F0000E9FEC01F0000E9FEC01F0500E05
:103860009FEC01F04F0E9FEC01F0540E9FEC01F025
:10387000530E9FEC01F0AC0E9FEC01F0850E9FEC17
:1038800001F0800E026E400E096E226A04C621F01D
:10389000066A056A200E016EB50E9FEC01F0620EFD
:1038A0009FEC01F0060E9FEC01F0570E9FEC01F02B
:1038B000000E9FEC01F0000E9FEC01F05D0E9FECFE
:1038C00001F01D0E9FEC01F0640E2BEC03F09492BE
:1038D0008B92030114510001E8AC14D03A0E166E1D
:1038E000980E2CEC03F08AEC28F040EC69F0030110
:1038F0001435000107E33A0E166E980E2CEC03F017
:1039000085EC69F0010E03015553D8A4000E3C6EFE
:10391000000E14BB010E3C16000105E02B0E9BECC3
:1039200002F00301556F0001EFEF19F0030112518E
:103930000001E8AC40D003EE60F0110EF76E7A0E95
:10394000F66E6CEC04F0EF6A0501F86B03011A6B7C
:10395000000103EE60F003011A51EB500C6E2A0EC9
:103960000C5CD8A4010E3C6E4F0E1A5D010ED8B04F
:10397000000E3C1600010CE003EE60F003011A514A
:10398000EB500C6E0501F81B03011A2B0001E0D768
:1039900003EE60F0EE50FEE1ED52020E016E086E95
:1039A0000501F85187EC00F00D0EEE6E0A0EEE6E7A
:1039B000EF6A0001E7D006010D6B0301125100010F
:1039C000E8B844D0800E026E800E096E226A04C6EA
:1039D00021F00B0E066EB80E056E5FEC01F0D8A05C
:1039E0009CEF24F02408F9E15FEC01F0D8A09CEFF3
:1039F00024F04708F2E15FEC01F0D8A09CEF24F03E
:103A00005008EBE15FEC01F0D8A09CEF24F04708F0
:103A1000E4E15FEC01F0D8A09CEF24F04708DDE181
:103A20005FEC01F0D8A09CEF24F003011C6F170E8F
:103A30000501F86F03EE60F0470EEE6E500EEE6E6D
:103A4000470EEE6EEE6EEF6A000142D0800E026EFF
:103A5000800E096E226A04C621F00B0E066EB80EA7
:103A6000056E5FEC01F0D8A09CEF24F02408F9E18A
:103A70005FEC01F0D8A09CEF24F04708F2E15FEC86
:103A800001F0D8A09CEF24F04E08EBE15FEC01F0D0
:103A9000D8A09CEF24F04708E4E15FEC01F0D8A047
:103AA0009CEF24F04708DDE15FEC01F0D8A09CEF2B
:103AB00024F003011C6F090E0501F86F03EE60F09E
:103AC000470EEE6E4E0EEE6E470EEE6EEE6EEF6A27
:103AD0000001496A03EE60F0EE50FEE1ED521CC3B6
:103AE000EEFFEF6A03011C510501F81B492A800E05
:103AF000026E800E096E226A04C621F0066AC80EA4
:103B0000056E5FEC01F00001D8A057D703011C6FD0
:103B10002A0E03011C5D010ED8A4000E3C6E4C0E53
:103B2000495C000102E2000E01D0010E3C12D2E01D
:103B3000800E026E800E096E226A04C621F0050E08
:103B40003B6E020E086E08EC00F00301356F0501B4
:103B5000F8510301355D0001D8A4CDEF24F003EE48
:103B600060F0EE50FEE1ED522A0EEE6E020E016E96
:103B7000086E0501F85187EC00F00D0EEE6E0A0E8E
:103B8000EE6EEF6A030112510001E8AC0ED003EEB5
:103B9000B6F0110EF76EC40EF66E6CEC04F00D0E5E
:103BA000EE6E0A0EEE6EEE6AD8D0030112510001DD
:103BB000E8B847D0800E026E800E096E226A04C6F5
:103BC00021F00B0E066EB80E056E5FEC01F0D8A06A
:103BD0009CEF24F02408F9E15FEC01F0D8A09CEF01
:103BE00024F04708F2E15FEC01F0D8A09CEF24F04C
:103BF0005008EBE15FEC01F0D8A09CEF24F05608F0
:103C0000E4E15FEC01F0D8A09CEF24F05408DDE182
:103C10005FEC01F0D8A09CEF24F003011C6F150E9F
:103C20000501F86F03EEB6F0470EEE6E500EEE6E25
:103C3000560EEE6E540EEE6E470EEE6EEF6A0001FB
:103C400045D0800E026E800E096E226A04C621F0F5
:103C50000B0E066EB80E056E5FEC01F0D8A09CEF5F
:103C600024F02408F9E15FEC01F0D8A09CEF24F0E7
:103C70004708F2E15FEC01F0D8A09CEF24F04E0879
:103C8000EBE15FEC01F0D8A09CEF24F05608E4E1F2
:103C90005FEC01F0D8A09CEF24F05408DDE15FEC6C
:103CA00001F0D8A09CEF24F003011C6F0B0E05015E
:103CB000F86F03EEB6F0470EEE6E4E0EEE6E560E39
:103CC000EE6E540EEE6E470EEE6EEF6A0001496A1C
:103CD00003EEB6F0EE50FEE1ED521CC3EEFFEF6ACC
:103CE00003011C510501F81B492A800E026E800E4B
:103CF000096E226A04C621F0066AC80E056E5FECE2
:103D000001F00001D8A03ED703011C6F2A0E030169
:103D10001C5D010ED8A4000E3C6E4C0E495C0001E7
:103D200002E2000E01D0010E3C12D2E0800E026EC3
:103D3000800E096E226A04C621F0050E3B6E020E4B
:103D4000086E08EC00F00301356F0501F85103011E
:103D5000355D0001D8A411EF25F004EE0CF013EE50
:103D6000B6F0550EE75204E0E6CFEEFFE82EFAD7A4
:103D7000EF6A05010E6B0D6B106B0F6B03011B6B74
:103D80000001A2EC28F005EE17F0EECFF3FFEFCF25
:103D9000F4FFF450F31006E103013A6B396B386B12
:103DA000000121D005EE17F004EC00F005010D6FC5
:103DB0001AC00EF50EC512F00DC511F0000E68EC1C
:103DC00003F003013A6F0EC512F00DC511F0010E9C
:103DD00068EC03F0396F0EC512F00DC511F0020E3C
:103DE00068EC03F0386F03011B6B0001A8EC28F0AE
:103DF00005EE17F0EECFF3FFEFCFF4FFF450F31022
:103E000007E1300E03013D6F3C6F3B6F000121D095
:103E100005EE17F004EC00F005010F6F1AC010F565
:103E200010C512F00FC511F0000E68EC03F003018D
:103E30003D6F10C512F00FC511F0010E68EC03F0D4
:103E40003C6F10C512F00FC511F0020E68EC03F0C4
:103E50003B6F0601016B04EE0CF013EE60F0550EA3
:103E6000E75204E0E6CFEEFFE82EFAD7EF6A03014F
:103E70001B6B0001A3EC28F0050117510C6E300EEE
:103E80000C5C0001D8B4EFEF23F003011B6B0001C1
:103E9000A8EC28F001EE7FF015EE17F0020EE6CF49
:103EA000EEFFE82EFCD73A0EEE6E15EE17F0030E7D
:103EB000F36E020E74EC04F03A0EEE6E15EE17F08F
:103EC000050EF36E020E74EC04F0EF6A03011B6B37
:103ED0000001A6EC28F00501175103010E6F4E0EEC
:103EE0000E5D000107E10301188301EE8FF0EF6A18
:103EF000000110D0530E03010E5D000109E1030122
:103F0000189301EE8FF02D0EEE6EEF6A000102D0D5
:103F10000301168703011B6B0001A7EC28F001EEDB
:103F20008FF0EE50FEE1ED5215EE17F0080EE6CFE1
:103F3000EEFFE82EFCD7EF6A050117510301426F2F
:103F4000050118510301436F050119510301446F25
:103F500005011A510301456F266A0A0E256E2A6A69
:103F600044C329F00F0E2916000E2A1626C01EF093
:103F700025C01DF02AC016F029C015F033EC04F05E
:103F8000256E1AC026F02A6A45C329F00F0E29169D
:103F9000000E2A16295025262A5026224B51255C30
:103FA000116E000E2658126E52EC04F00C6E12C008
:103FB0000DF00D5204E1030E0C5C000125E3266AAE
:103FC0000A0E256E2A6A44C329F00F0E2916000E28
:103FD0002A1626C01EF025C01DF02AC016F029C0E2
:103FE00015F033EC04F0256E1AC026F02A6A45C39A
:103FF00029F00F0E2916000E2A1625502924030138
:104000004B6F000196EF1CF0266A0A0E256E2A6A95
:1040100044C329F00F0E2916000E2A1626C01EF0E2
:1040200025C01DF02AC016F029C015F033EC04F0AD
:10403000256E1AC026F02A6A45C329F00F0E2916EC
:10404000000E2A162550292403014B6F05011B5130
:104050000C6E2E0E0C5C000102E0030116870501B8
:104060001C510301466F05011D510301476F0F0EDF
:1040700042151C6F1C51FDEC07F03A6A396A200E9C
:10408000386E820E376E56EC07F036C091F535C0AB
:1040900090F534C08FF533C08EF50F0E43151C6FAD
:1040A0001C51FDEC07F091C53AF090C539F08FC571
:1040B00038F08EC537F062EC06F036C091F535C0A9
:1040C00090F534C08FF533C08EF50F0E44151C6F7C
:1040D0001C51640DF3CF23F3F4CF24F30F0E4515D9
:1040E0001C6F1C510A0DF3CF1CF31C512327000E2B
:1040F00024230F0E46151C6F1C512327000E24236A
:104100003A6A396A160E386E880E376E24C334F058
:1041100023C333F0FFEC07F0F0EC06F036C028F0D4
:1041200035C027F034C026F033C025F091C53AF0F1
:1041300090C539F08FC538F08EC537F028C036F0FD
:1041400027C035F026C034F025C033F062EC06F00D
:1041500036C091F535C090F534C08FF533C08EF57B
:1041600018510001E8B218D0366A356A800E346EF4
:104170007F0E336E91C53AF090C539F08FC538F097
:104180008EC537F056EC07F036C091F535C090F586
:1041900034C08FF533C08EF503011B6B0001A4EC16
:1041A00028F00501175103010F6F450E0F5D000147
:1041B00007E10301189501EE9FF0EF6A000110D0AE
:1041C000570E03010F5D000109E10301188501EE9F
:1041D0009FF02D0EEE6EEF6A000102D003011687EC
:1041E00003011B6B0001A5EC28F001EE9FF0EE50DF
:1041F000FEE1ED5215EE17F0090EE6CFEEFFE82EC8
:10420000FCD7EF6A050117510C6E0F0E0C14030159
:10421000486F266A48C325F026500A0DF3CF26F0D2
:1042200025500A0DF3CF25F0F4502626050118512C
:104230000C6E2A6A0CC029F00F0E2916000E2A16E1
:10424000255029240301486F266A48C325F02650CB
:104250000A0DF3CF26F025500A0DF3CF25F0F450C8
:104260002626050119510C6E2A6A0CC029F00F0E82
:104270002916000E2A16255029240301486F05012E
:104280001A510C6E0F0E0C140301496F266A49C3B4
:1042900025F026500A0DF3CF26F025500A0DF3CF56
:1042A00025F0F450262605011B510C6E2A6A0CC01D
:1042B00029F00F0E2916000E2A1625502924030175
:1042C000496F4C51495D116E126AD8A0120652EC2A
:1042D00004F00C6E12C00DF00D5204E1030E0C5CE4
:1042E000000105E349C34CF3000196EF1CF049C3FC
:1042F0004CF305011D510C6E0F0E0C1403014A6F97
:104300004851FDEC07F036C028F035C027F034C026
:1043100026F033C025F04951FDEC07F036C02CF0F3
:1043200035C02BF034C02AF033C029F0366A356A24
:10433000200E346E820E336E2CC03AF02BC039F052
:104340002AC038F029C037F056EC07F036C02CF000
:1043500035C02BF034C02AF033C029F04A51FDECAF
:1043600007F02CC03AF02BC039F02AC038F029C031
:1043700037F062EC06F036C02CF035C02BF034C0BC
:104380002AF033C029F03A6A396A160E386E880E60
:10439000376E2CC036F02BC035F02AC034F029C05F
:1043A00033F0F0EC06F036C02CF035C02BF034C002
:1043B0002AF033C029F028C03AF027C039F026C0CF
:1043C00038F025C037F02CC036F02BC035F02AC0AD
:1043D00034F029C033F062EC06F036C095F535C0F4
:1043E00094F534C093F533C092F5266A4AC325F09C
:1043F00026500A0DF3CF26F025500A0DF3CF25F0F5
:10440000F450262605011E510C6E2A6A0CC029F0B4
:104410000F0E2916000E2A162550292403014A6F73
:1044200018510001E8A418D0366A356A800E346E3F
:104430007F0E336E95C53AF094C539F093C538F0C8
:1044400092C537F056EC07F036C095F535C094F5B7
:1044500034C093F533C092F503011B6B0001A2EC4D
:1044600028F005EE11F015EE17F0320EE75204E0D9
:10447000E6CFEEFFE82EFAD7EF6A05EE11F004EC76
:1044800000F00601026F030112510001E8BC1BD0CD
:1044900003011B6B0001A0EC28F001EEAFF015EE5C
:1044A00017F0320EE75204E0E6CFEEFFE82EFAD71F
:1044B000EF6A01EEAFF004EC00F00501FC6F1AC0EA
:1044C000FDF500013FD0270E0501FD5D000118E359
:1044D00005E1100E0501FC5D000112E330C312F08E
:1044E00003012F51116EFE0DF3CF2FF3F4CF30F3F4
:1044F0001250FE0DF35030271150FF0DF3503027AE
:1045000003012F510501FC27030130510501FD2353
:10451000010EFD5D000106E308E12D0E0501FC5DC5
:10452000000103E20301306B2F6B000101EEAFF0DD
:10453000020E016E086AFDC51AF0FCC519F0A1EC67
:1045400000F0EF6A03014D510501FC5D116E03019E
:104550004E510501FD59126E52EC04F00C6E12C062
:104560000DF0070E0D5C00010BE303E1D10E0C5CB6
:1045700007E3FDC54EF3FCC54DF3000196EF1CF0BB
:10458000FDC54EF3FCC54DF3266A39C325F00F0E69
:104590002516000E26162A6A0A0E296E2E6A38C3C0
:1045A0002DF00F0E2D16000E2E162AC01EF029C05B
:1045B0001DF02EC016F02DC015F033EC04F0296E5E
:1045C0001AC02AF0255029240301396F140E395DD1
:1045D000000105E26C0E03013927000103D0300E03
:1045E000030139270001266A3BC325F00F0E25166B
:1045F000000E26162A6A0A0E296E2E6A3AC32DF07C
:104600000F0E2D16000E2E162AC01EF029C01DF00A
:104610002EC016F02DC015F033EC04F0296E1AC030
:104620002AF02550292403013B6F200E3B27266AE0
:104630003CC325F00F0E2516000E26162A6A0A0E18
:10464000296E2E6A3DC32DF00F0E2D16000E2E166C
:104650002AC01EF029C01DF02EC016F02DC015F086
:1046600033EC04F0296E1AC02AF0255029243D6F3E
:104670001C0E3D27200E4227200E43271851000113
:10468000E8A203D0200E03014527640E0301485D14
:10469000000ED8B0010E3C6E0A0E485D010ED8B077
:1046A000000E3C12000103E0200E03014627030127
:1046B00018510001E8A403D0200E03014727640E1F
:1046C0000301485D00010FE36E0E0301485D000128
:1046D00005E2080E03014827000103D0480E03013C
:1046E000485F00010DD00A0E0301485D000105E39B
:1046F0001C0E03014827000103D0760E0301482752
:104700000A0E0301495D000105E2580E0301492725
:10471000000103D01C0E03014927000188C50CF0DD
:1047200089C50DF00DC087F50CC086F58AC50CF063
:104730008BC50DF00DC089F50CC088F58CC50CF04B
:104740008DC50DF00DC08BF50CC08AF5FDC58DF53E
:10475000FCC58CF58CC50CF08DC50DF08AC50EF02E
:104760008BC50FF00E500C5C0F500D5802E3000E7D
:1047700001D0010E3C6E8AC50CF08BC50DF088C5CA
:104780000EF089C50FF00E500C5C0F500D5802E36F
:10479000000E01D0010E3C1688C50CF089C50DF045
:1047A00086C50EF087C50FF00E500C5C0F500D58EB
:1047B00002E3000E01D0010E3C1610E00301439B02
:1047C000050E0501FD5D000108E305E1DD0E0501B3
:1047D000FC5D000102E303011783000131D00601F3
:1047E0000D2B110E0D5D000123E300EEE8F00D0E20
:1047F000EE6E110EF76EEA0EF66E6CEC04F00D0E16
:10480000EE6EEE6A030114510001E8AA05D003011F
:104810001B6B000154EC2AF003011235000106E382
:1048200065EC28F007EC67F08AEC28F006010D6BC8
:104830000001270E166E100E2CEC03F0DDEF1CF0BD
:1048400012001C0E03014A2742C358F043C359F01B
:1048500044C35AF045C35BF046C35CF047C35DF008
:104860005E6A48C30CF449C30DF44AC30EF439C35D
:104870000FF43BC310F43DC311F450C312F44FC303
:1048800013F4100E0501FC2503012D6F270E050101
:10489000FD2103012E6F2EC312F02DC311F0200E47
:1048A000166E590E156EA0EC03F0256E12C026F0A0
:1048B000210E25240C6E0CC014F42EC312F02DC34F
:1048C00011F0200E166E590E156EA0EC03F01AC0F2
:1048D0002EF319C02DF32EC312F02DC311F0166A5A
:1048E0005B0E156EA0EC03F0256E12C026F0210EB3
:1048F00025240C6E0CC015F42EC312F02DC311F03C
:10490000166A5B0E156EA0EC03F01AC026F019C0F3
:1049100025F0210E25240C6E0CC016F47D0E04012A
:10492000176F0D0E186F0601016B00013CEC58F07B
:104930008AEC28F079EF2AF082949494640E2BECA0
:1049400003F094840601012B060E015D000123E3B0
:1049500000EEE8F00D0EEE6E120EF76E020EF66E21
:104960006CEC04F00D0EEE6EEF6A0601016B0301B4
:1049700014510001E8AA05D003011B6B000154EC9F
:104980002AF003011235000106E365EC28F007EC7C
:1049900067F08AEC28F096EF1CF00601012B060E5A
:1049A000015D00013CE300EEE8F00D0EEE6E120E2C
:1049B000F76E220EF66E6CEC04F013EE60F0550EFE
:1049C000E75204E0E6CFEEFFE82EFAD7020E016EC2
:1049D000086E0301355187EC00F0200EEE6E020EDA
:1049E000016E086E0501F85187EC00F00D0EEE6EB9
:1049F000EF6A0601016B030114510001E8AA05D01A
:104A000003011B6B000154EC2AF003011235000175
:104A100006E365EC28F007EC67F08AEC28F096EFE7
:104A20001CF00601012B060E015D00013CE300EEC7
:104A3000E8F00D0EEE6E120EF76E220EF66E6CECB6
:104A400004F013EEB6F0550EE75204E0E6CFEEFFA9
:104A5000E82EFAD7020E016E086E0301355187EC7D
:104A600000F0200EEE6E020E016E086E0501F85188
:104A700087EC00F00D0EEE6EEF6A0601016B03018C
:104A800014510001E8AA05D003011B6B000154EC8E
:104A90002AF003011235000106E365EC28F007EC6B
:104AA00067F08AEC28F0C2EF1DF065EC28F00301F6
:104AB00014891487149D0501FA51FDEC07F03A6A38
:104AC000396A400E386E7F0E376E56EC07F0A4EC54
:104AD00007F0F56F34C0F6F5010E166EF40E2CECEF
:104AE00003F00001939A8A9AB2D966EC28F0030188
:104AF0001A6B060E03011A5D00010EE200EE4FF084
:104B000003011A51EB500C6E200E0C5C000104E006
:104B100003011A2B0001EDE305EE17F0120EF76EFC
:104B2000380EF66E6CEC04F010EE4FF003011A51E3
:104B3000E6CFEEFFE82EFCD72F0EEE6E410EEE6EA6
:104B40004D0EEE6EEE6A1A6B000105EE17F00301D2
:104B50001A51EB500C6E0C5200010DE005EE17F0EF
:104B600003011A51EB500501C96F0001F1D803018F
:104B70001A2B0001E9D70501F651050DF3CF16F008
:104B8000F551050DF3CF15F0F45016262DEC03F07A
:104B9000030114510001E8A62CD004EE0CF013EE32
:104BA00060F0550EE75204E0E6CFEEFFE82EFAD7AC
:104BB000EF6AEBEC4EF0010E166EF40E2CEC03F0E7
:104BC00003011A6B000105EE17F003011A51EB50B7
:104BD0000C6E0C5200010DE005EE17F003011A51A6
:104BE000EB500501C96F0001B3D803011A2B000176
:104BF000E9D703011731000133E303011451000128
:104C0000E8AA2BD0010E166EF40E2CEC03F08AEC01
:104C100028F004EE0CF0210EEE6E11EE8FF0070E70
:104C2000E6CFEEFFE82EFCD70EC3EEFF2F0EEE6EA2
:104C300011EE9FF0080EE6CFEEFFE82EFCD70FC373
:104C4000EEFF4F0EEE6E0D0EEE6EEF6A0301119D3C
:104C50000001F2EC28F07FEC2AF04AEC65F077D006
:104C60000601218103011331000132E365EC54F0A8
:104C7000010E166EF40E2CEC03F005EE17F0200E6C
:104C8000EE6E550EEE6E10EEA6F00A0EE75204E040
:104C9000E6CFEEFFE82EFAD7560EEE6EEE6A03016F
:104CA0001A6B000105EE17F003011A51EB500C6E60
:104CB0000C5200010DE005EE17F003011A51EB5004
:104CC0000501C96F000144D803011A2B0001E9D77F
:104CD000030113510001E8A239D023EC53F09B519A
:104CE0000C6E2D0E0C5C02E14E0E9B6F030E166EC9
:104CF000E80E2CEC03F005EE17F0200EEE6E540ECD
:104D0000EE6E10EE9BF00A0EE75204E0E6CFEEFFE7
:104D1000E82EFAD7430EEE6EEE6A03011A6B00011D
:104D200005EE17F003011A51EB500C6E0C52000106
:104D30000DE005EE17F003011A51EB500501C96FA4
:104D4000000106D803011A2B0001E9D7C6D81200CA
:104D5000200E0501C95D00010FE10501F651050DA9
:104D6000F3CF16F0F551050DF3CF15F0F4501626DC
:104D70002DEC03F000011200410E0501C95D000198
:104D800012E2266A4D0E0501C925256ED8B0262AE5
:104D90002E0E255CCD6FAA6ACDC5A9FF9DEC02F051
:104DA000C86F000110D0266A5D0E0501C925256E69
:104DB000D8B0262A410E255CCD6FAA6ACDC5A9FFC1
:104DC0009DEC02F0C86F020E0501C85D000126E3EC
:104DD0007AD80501C83100010FE30501F651030D32
:104DE000F3CF16F0F551030DF3CF15F0F45016265E
:104DF0002DEC03F0000106D0F6C516F00501F551C3
:104E00002CEC03F0000196D8F6C516F00501F5511B
:104E10002CEC03F0D890C8330001D5D7D890050109
:104E2000F535156EF635166E2DEC03F00001120007
:104E3000050E05014A6F110E4B6F200E4C6F010ECF
:104E40004D6F4E6B8A0E4F6F00014CEF52F0050E06
:104E500005014A6F110E4B6F200E4C6F010E4D6F06
:104E60004E6B880E4F6F00014CEF52F0050E05019E
:104E70004A6F110E4B6F200E4C6F010E4D6F4E6B33
:104E8000890E4F6F00014CEF52F00501CA9F050ECD
:104E90004A6F110E4B6F220E4C6F010E4D6F4E6F0D
:104EA000CAC54FF500014CEF52F0050E05014A6FDF
:104EB000110E4B6F4C6B010E4D6F4E6BCBC54FF50A
:104EC00000014CEF52F0020E05014A6F340E4B6F99
:104ED000070E4C6F00014CEF52F0020E05014A6FB5
:104EE000340E4B6F010E4C6F00014CEF52F0020E6E
:104EF00005014A6F340E4B6F050E4C6F00014CEFED
:104F000052F0060E05014A6F310E4B6F010E4C6FC9
:104F1000300E4D6F4E6B4F6B506B00014CEF52F0EB
:104F2000020E05014A6F340E4B6F030E4C6F0001E9
:104F30004CEF52F0020E05014A6F340E4B6F080E13
:104F40004C6F00014CEF52F0020E05014A6F340E17
:104F50004B6F060E4C6F00014CEF52F0020E050134
:104F60004A6F340E4B6F020E4C6F00014CEF52F043
:104F7000060E05014A6F110E4B6F200E4C6F020E8C
:104F80004D6F0D0E4E6F040E4F6FB00E506F00013F
:104F90004CEF52F0060E05014A6F110E4B6F200EBA
:104FA0004C6F020E4D6F0D0E4E6F4F6B506B00012C
:104FB0004CEF52F0A1C528F0A0C527F09FC526F000
:104FC0009EC525F0B9C534F0B8C533F0FFEC07F045
:104FD00036C02CF035C02BF034C02AF033C029F095
:104FE000660E366E356E060E346E7F0E336E2CC036
:104FF0003AF02BC039F02AC038F029C037F056EC0F
:1050000007F036C02CF035C02BF034C02AF033C086
:1050100029F02952D8B43F84D8A4290628C03AF0F0
:1050200027C039F026C038F025C037F02CC036F044
:105030002BC035F02AC034F029C033F056EC07F00D
:10504000A4EC07F00501D26F34C0D3F5D3C5C7F582
:10505000D2C5C6F5070E4A6F110E4B6F200E4C6F6E
:10506000030E4D6F0A0E4E6F4F6BC7C550F5C6C588
:1050700051F500014CEF52F0070E05014A6F110E79
:105080004B6F200E4C6F030E4D6F0A0E4E6F4F6B21
:10509000506B516B00014CEF52F0080E05014A6F46
:1050A000130E4B6F040E4C6F150E4D6F210E4E6F8D
:1050B000200E4F6F080E506F0B0E516F526B140E77
:1050C0002BEC03F000016CEF52F0B2DE100E0F017A
:1050D000406F3E0E9BEC02F00501B06F9DEC02F0BC
:1050E000B16F9DEC02F0B26F9DEC02F0B36FB00EA9
:1050F000B025A86F040EB121A96F000EB221AA6FCE
:10510000000EB321AB6F000100EC5DF053DF640EC5
:105110002BEF03F0310E9BEC02F00501A86F9DEC24
:1051200002F0A96F9DEC02F0AA6F9DEC02F0AB6F4C
:1051300000018DDE00EC5DF09FDF640E2BEF03F0CD
:1051400033D832D831D830D82FD82ED82DD82CD823
:105150002BD803011A6B000104EE0CF003011B5164
:10516000E926000EEA22EF500C6E2C0E0C5C0001BA
:1051700012E004EE0CF003011B51E926000EEA22B6
:10518000EFCF0CF005EE17F01A510CC0EBFF1A2B05
:105190001B2B0001E0D7F36A05EE17F003011A514B
:1051A000F3CFEBFF0001120004EE0CF003011B51E2
:1051B000E926000EEA22EF500C6E2C0E0C5CD8A4EF
:1051C000010E3C6E500E1B5D010ED8B0000E3C1659
:1051D000000104E003011B2B0001E6D703011B2B98
:1051E000000112000301179D0001CFEC46F062ECB4
:1051F0002BF000EEE8F010EE58F0080EE75204E055
:10520000E6CFEEFFE82EFAD7EF6A610E4E6E03018D
:1052100011510001E8A801D04E9087EC45F000EE56
:10522000E8F010EE4FF0080EE75204E0E6CFEEFF94
:10523000E82EFAD7EF6A87EC45F04EB03AD003017A
:1052400011510001E8A411D0600E4E6E00EEE8F09E
:1052500010EE61F0080EE75204E0E6CFEEFFE82E14
:10526000FAD7EF6A87EC45F001D013D00301115152
:105270000001E8A60ED000EEE8F010EE6AF0080E8D
:10528000E75204E0E6CFEEFFE82EFAD7EF6A87ECAC
:1052900045F0610E4E6E00EEE8F010EE73F0080E71
:1052A000E75204E0E6CFEEFFE82EFAD7EF6A87EC8C
:1052B00045F0030E4B6E59D9F00E4B6E56D10301DB
:1052C000376B366B2C6B770E2B6F630E0301365DDD
:1052D0000001D8B0E8D02CC3AAFF2BC3A9FF9DECD6
:1052E00002F04B6E0D0E4B5CD8B4DDD05C0E4B5C07
:1052F000D8A4D1D003012B2B000E2C231B6B2CC365
:10530000AAFF2BC3A9FF9DEC02F04B6E4B9A550EE2
:105310004B5C00010EE100EEE8F010EEA6F00A0E84
:10532000E75204E0E6CFEEFFE82EFAD7EF6ABCD8EA
:10533000B1D0560E4B5C0EE100EEE8F010EEB1F08D
:105340000A0EE75204E0E6CFEEFFE82EFAD7EF6A46
:10535000ABD8A0D0570E4B5C0EE100EEE8F010EE9B
:10536000BCF00A0EE75204E0E6CFEEFFE82EFAD7D3
:10537000EF6A9AD88FD0580E4B5C0EE100EEE8F041
:1053800010EEC7F00A0EE75204E0E6CFEEFFE82E7B
:10539000FAD7EF6A89D87ED05A0E4B5C16E100EE40
:1053A000E8F0020E016E086A1A6A070E196EA1EC87
:1053B00000F02E0EEE6E020E016E010E086E4B0E08
:1053C0009FEC00F0EE6A70D865D0540E4B5C0EE195
:1053D00000EEE8F010EE9BF00A0EE75204E0E6CF94
:1053E000EEFFE82EFAD7EF6A5FD854D0530E4B5C2D
:1053F0000EE100EEE8F010EE90F00A0EE75204E045
:10540000E6CFEEFFE82EFAD7EF6A4ED843D0490E2A
:105410004B5C0EE100EEE8F010EE8AF0050EE7526C
:1054200004E0E6CFEEFFE82EFAD7EF6A3DD832D09F
:10543000500E4B5C0EE100EEE8F010EED2F00A0EDA
:10544000E75204E0E6CFEEFFE82EFAD7EF6A2CD859
:1054500021D0460E4B5C0EE100EEE8F010EEDDF0E0
:105460000A0EE75204E0E6CFEEFFE82EFAD7EF6A25
:105470001BD810D0420E4B5C0DE100EEE8F010EEB0
:1054800085F0040EE75204E0E6CFEEFFE82EFAD7EF
:10549000EF6A0AD801D069D803012B2B000E2C2308
:1054A000362B000112D7120000EEE8F003011B5169
:1054B000E926000EEA22EF500C6E000E0C52D8A422
:1054C000010E3C6E640E1B5D010ED8B0000E3C1642
:1054D00000010EE000EEE8F003011B51E926000E8A
:1054E000EA22EF504B6E1B2B362B00013ED8DCD747
:1054F000120070EC47F076DE600E4B6E36D803017A
:105500001B6B000104EE0CF003011B51E926000E99
:10551000EA22EF500C6E0D0E0C5CD8A4010E3C6E0E
:10552000C70E1B5D010ED8B0000E3C1600010FE047
:1055300004EE0CF003011B51E926000EEA22EF50A5
:105540004B6E000112D803011B2B0001DAD7000EAD
:10555000030111BD010E3C6E010E5553D8A4000E7F
:105560003C160001D8A4ABDEBED00301113500010A
:10557000D8B092D0F29A486A080E485C1FE2030144
:10558000188D4BA0189D00014CD84BB006D0476A2F
:1055900003011689000114D80DD003011699472A7A
:1055A00000010ED8050E475C05E1476A0301168924
:1055B000000106D8D8904B32482ADEE3F28A120066
:1055C000E86A030116BB010F16B9010AD8B4169B8D
:1055D000D8A4168B030116510001E8BA03D058C3B2
:1055E00052FF02D059C352FF9EB219D0F76A57C377
:1055F000F6FFEE0EF626BD0EF722A66AA68E08006E
:10560000F5CF40FF7EA0FED70301572B7E90170EEB
:10561000575D000102E10301576B0001E5D79E923F
:105620001200030118510001E8AC02D0010E4C1A1F
:105630000301188D4CA0189DD8904D324C32185152
:105640000001E8BC01D01200080E4C1A840E4D1A5D
:105650001200030111350001D8B0120003011A6BCA
:1056600003011A511C5D000116E3030116890001B4
:10567000A7DF486A060E485C06E20301169900019E
:105680009FDF482AF7E303011689000199DF030130
:105690001A2B0001E5E31200016A020E086E4B505E
:1056A00087EC00F0200E15EC02F00301532B100ED6
:1056B000535D000105E10301536B0D0E15EC02F083
:1056C00000011200030111350001D8A063EC27F09E
:1056D000CFEC46F04D684C6851C3BBFFBC6A9E924C
:1056E00010C31CF3B6D703011135000104E30D0EFE
:1056F00015EC02F011D0FF0E4D180301526FFF0E92
:105700004C184B6E000131DF52C34BF02EDF54C3F7
:105710001CF39FDF9EA2FED76DEF27F00D0E15EC58
:1057200002F0120EF76E420EF66E0DEC02F0016AF8
:10573000086A1A6A070E196EA1EC00F02E0E15EC1D
:1057400002F0010E086E4B0E9FEC00F0120EF76E89
:10575000560EF66E0DEC02F00D0E15EC02F0130E67
:10576000096E880E026EE7EC01F0D8A05CEF17F02E
:105770004A6E120EF76E600EF66E0DEC02F00D0E14
:1057800015EC02F0630E15EC02F06D0E15EC02F054
:10579000640E15EC02F03E0E15EC02F004EE0CF077
:1057A0000D0EEE6EEF6A03D86AD8E3D8FCD73A0E36
:1057B000096E980E026EE7EC01F0F9E34A6E030100
:1057C00012510001E8A203D04A5015EC02F00D0E70
:1057D0004A5C010ED8A4000E3C6E0A0E4A5C010E13
:1057E000D8A4000E3C12D8A41200010E496E4AC083
:1057F0000CF43A0E096E980E026EE7EC01F036E3F7
:105800004A6E030112510001E8A203D04A5015EC80
:1058100002F0080E4A5C04E14952D8A44906E9D7CF
:105820000D0E4A5C010ED8A4000E3C6E0A0E4A5CB6
:10583000010ED8A4000E3C124928010ED8A4000E77
:105840003C120AE004EE0CF04950E926000EEA2270
:105850000D0EEF6E120008D004EE0CF04950E92650
:10586000000EEA224AC0EFFF492AC3D704EE0CF02B
:105870004950E926000EEA220D0EEF6E12000301D8
:105880001B6B000104EE0CF003011B51E926000E16
:10589000EA22EF500C6E200E0C5CD8A4010E3C6E78
:1058A00004EE0CF01B51E926000EEA22EF500C6EBC
:1058B0000D0E0C5CD8A4010E3C16FD0E1B5D010EF6
:1058C000D8B0000E3C160001D8B449D004EE0CF05C
:1058D00003011B51E926000EEA22EF500C6E610E07
:1058E0000C5C000ED8B0010E3C6E04EE0CF01B51A7
:1058F000E926000EEA22EF500C6E7B0E0C5C0001D4
:1059000002E3000E01D0010E3C1614E004EE0CF090
:1059100003011B51E926000EEA22EF500E6EDF0E46
:105920000E140C6E04EE0CF01B51E926000EEA2258
:105930000CC0EFFF000104EE0CF003011B51E9263F
:10594000000EEA22EFCF0CF000EEE8F01B51E92642
:10595000000EEA220CC0EFFF1B2B000192D700EED5
:10596000E8F003011B51E926000EEA22EF6A00016C
:105970001200E8510C6E0A0E0C5C010ED8A4000E49
:105980003C6EE8510C6E0D0E0C5C010ED8A4000E9E
:105990003C12E8510C6E010E0C52D8A4000E3C12C1
:1059A000D8A41200120EF76E740EF66E00EEE8F038
:1059B0007DEC04F004E148EF32F0F4EF2FF0120E2A
:1059C000F76E7A0EF66E00EEE8F07DEC04F009E07A
:1059D000120EF76E7E0EF66E00EEE8F07DEC04F02F
:1059E00004E1F4EF35F0F4EF2FF0120EF76E860EAF
:1059F000F66E00EEE8F07DEC04F009E0120EF76EB2
:105A00008A0EF66E00EEE8F07DEC04F004E198EF0B
:105A100035F0F4EF2FF0120EF76E900EF66E00EEEA
:105A2000E8F07DEC04F009E0120EF76E940EF66ECD
:105A300000EEE8F07DEC04F004E1B1EF35F0F4EFB6
:105A40002FF0120EF76E9C0EF66E00EEE8F07DEC75
:105A500004F009E0120EF76EA00EF66E00EEE8F00C
:105A60007DEC04F004E13EEF36F0F4EF2FF0120E7F
:105A7000F76EA80EF66E00EEE8F07DEC04F009E09B
:105A8000120EF76EAE0EF66E00EEE8F07DEC04F04E
:105A900004E17DEF37F0F4EF2FF0120EF76EB60E43
:105AA000F66E00EEE8F07DEC04F004E1E6EF41F084
:105AB000F4EF2FF0120EF76EBC0EF66E00EEE8F06B
:105AC0007DEC04F004E1EAEF31F0F4EF2FF0120E78
:105AD000F76EC40EF66E00EEE8F07DEC04F004E123
